{
  "contractName": "CrowdfundingNFT",
  "abi": [
    {
      "inputs": [
        {
          "internalType": "address",
          "name": "_operator",
          "type": "address"
        }
      ],
      "stateMutability": "nonpayable",
      "type": "constructor"
    },
    {
      "anonymous": false,
      "inputs": [
        {
          "indexed": true,
          "internalType": "address",
          "name": "owner",
          "type": "address"
        },
        {
          "indexed": true,
          "internalType": "address",
          "name": "approved",
          "type": "address"
        },
        {
          "indexed": true,
          "internalType": "uint256",
          "name": "tokenId",
          "type": "uint256"
        }
      ],
      "name": "Approval",
      "type": "event"
    },
    {
      "anonymous": false,
      "inputs": [
        {
          "indexed": true,
          "internalType": "address",
          "name": "owner",
          "type": "address"
        },
        {
          "indexed": true,
          "internalType": "address",
          "name": "operator",
          "type": "address"
        },
        {
          "indexed": false,
          "internalType": "bool",
          "name": "approved",
          "type": "bool"
        }
      ],
      "name": "ApprovalForAll",
      "type": "event"
    },
    {
      "anonymous": false,
      "inputs": [
        {
          "indexed": true,
          "internalType": "address",
          "name": "from",
          "type": "address"
        },
        {
          "indexed": true,
          "internalType": "address",
          "name": "to",
          "type": "address"
        },
        {
          "indexed": true,
          "internalType": "uint256",
          "name": "tokenId",
          "type": "uint256"
        }
      ],
      "name": "Transfer",
      "type": "event"
    },
    {
      "inputs": [
        {
          "internalType": "uint256",
          "name": "",
          "type": "uint256"
        }
      ],
      "name": "allNFTs",
      "outputs": [
        {
          "internalType": "uint256",
          "name": "startingBlockTime",
          "type": "uint256"
        },
        {
          "internalType": "uint256",
          "name": "endingBlockTime",
          "type": "uint256"
        },
        {
          "internalType": "address",
          "name": "streamReceiver",
          "type": "address"
        },
        {
          "internalType": "uint256",
          "name": "streamAmount",
          "type": "uint256"
        },
        {
          "internalType": "uint256",
          "name": "streamRate",
          "type": "uint256"
        },
        {
          "internalType": "address",
          "name": "streamToken",
          "type": "address"
        },
        {
          "internalType": "uint256",
          "name": "securityAmount",
          "type": "uint256"
        },
        {
          "internalType": "address",
          "name": "minter",
          "type": "address"
        },
        {
          "internalType": "bool",
          "name": "isStopped",
          "type": "bool"
        }
      ],
      "stateMutability": "view",
      "type": "function",
      "constant": true
    },
    {
      "inputs": [
        {
          "internalType": "address",
          "name": "to",
          "type": "address"
        },
        {
          "internalType": "uint256",
          "name": "tokenId",
          "type": "uint256"
        }
      ],
      "name": "approve",
      "outputs": [],
      "stateMutability": "nonpayable",
      "type": "function"
    },
    {
      "inputs": [
        {
          "internalType": "address",
          "name": "owner",
          "type": "address"
        }
      ],
      "name": "balanceOf",
      "outputs": [
        {
          "internalType": "uint256",
          "name": "",
          "type": "uint256"
        }
      ],
      "stateMutability": "view",
      "type": "function",
      "constant": true
    },
    {
      "inputs": [
        {
          "internalType": "uint256",
          "name": "tokenId",
          "type": "uint256"
        }
      ],
      "name": "getApproved",
      "outputs": [
        {
          "internalType": "address",
          "name": "",
          "type": "address"
        }
      ],
      "stateMutability": "view",
      "type": "function",
      "constant": true
    },
    {
      "inputs": [
        {
          "internalType": "address",
          "name": "owner",
          "type": "address"
        },
        {
          "internalType": "address",
          "name": "operator",
          "type": "address"
        }
      ],
      "name": "isApprovedForAll",
      "outputs": [
        {
          "internalType": "bool",
          "name": "",
          "type": "bool"
        }
      ],
      "stateMutability": "view",
      "type": "function",
      "constant": true
    },
    {
      "inputs": [],
      "name": "name",
      "outputs": [
        {
          "internalType": "string",
          "name": "",
          "type": "string"
        }
      ],
      "stateMutability": "view",
      "type": "function",
      "constant": true
    },
    {
      "inputs": [
        {
          "internalType": "uint256",
          "name": "",
          "type": "uint256"
        },
        {
          "internalType": "address",
          "name": "",
          "type": "address"
        }
      ],
      "name": "nftAccounting",
      "outputs": [
        {
          "internalType": "uint256",
          "name": "",
          "type": "uint256"
        }
      ],
      "stateMutability": "view",
      "type": "function",
      "constant": true
    },
    {
      "inputs": [],
      "name": "oldTokenId",
      "outputs": [
        {
          "internalType": "uint256",
          "name": "",
          "type": "uint256"
        }
      ],
      "stateMutability": "view",
      "type": "function",
      "constant": true
    },
    {
      "inputs": [
        {
          "internalType": "uint256",
          "name": "tokenId",
          "type": "uint256"
        }
      ],
      "name": "ownerOf",
      "outputs": [
        {
          "internalType": "address",
          "name": "",
          "type": "address"
        }
      ],
      "stateMutability": "view",
      "type": "function",
      "constant": true
    },
    {
      "inputs": [
        {
          "internalType": "address",
          "name": "from",
          "type": "address"
        },
        {
          "internalType": "address",
          "name": "to",
          "type": "address"
        },
        {
          "internalType": "uint256",
          "name": "tokenId",
          "type": "uint256"
        }
      ],
      "name": "safeTransferFrom",
      "outputs": [],
      "stateMutability": "nonpayable",
      "type": "function"
    },
    {
      "inputs": [
        {
          "internalType": "address",
          "name": "from",
          "type": "address"
        },
        {
          "internalType": "address",
          "name": "to",
          "type": "address"
        },
        {
          "internalType": "uint256",
          "name": "tokenId",
          "type": "uint256"
        },
        {
          "internalType": "bytes",
          "name": "_data",
          "type": "bytes"
        }
      ],
      "name": "safeTransferFrom",
      "outputs": [],
      "stateMutability": "nonpayable",
      "type": "function"
    },
    {
      "inputs": [
        {
          "internalType": "address",
          "name": "operator",
          "type": "address"
        },
        {
          "internalType": "bool",
          "name": "approved",
          "type": "bool"
        }
      ],
      "name": "setApprovalForAll",
      "outputs": [],
      "stateMutability": "nonpayable",
      "type": "function"
    },
    {
      "inputs": [
        {
          "internalType": "bytes4",
          "name": "interfaceId",
          "type": "bytes4"
        }
      ],
      "name": "supportsInterface",
      "outputs": [
        {
          "internalType": "bool",
          "name": "",
          "type": "bool"
        }
      ],
      "stateMutability": "view",
      "type": "function",
      "constant": true
    },
    {
      "inputs": [],
      "name": "symbol",
      "outputs": [
        {
          "internalType": "string",
          "name": "",
          "type": "string"
        }
      ],
      "stateMutability": "view",
      "type": "function",
      "constant": true
    },
    {
      "inputs": [
        {
          "internalType": "uint256",
          "name": "tokenId",
          "type": "uint256"
        }
      ],
      "name": "tokenURI",
      "outputs": [
        {
          "internalType": "string",
          "name": "",
          "type": "string"
        }
      ],
      "stateMutability": "view",
      "type": "function",
      "constant": true
    },
    {
      "inputs": [
        {
          "internalType": "address",
          "name": "from",
          "type": "address"
        },
        {
          "internalType": "address",
          "name": "to",
          "type": "address"
        },
        {
          "internalType": "uint256",
          "name": "tokenId",
          "type": "uint256"
        }
      ],
      "name": "transferFrom",
      "outputs": [],
      "stateMutability": "nonpayable",
      "type": "function"
    },
    {
      "inputs": [],
      "name": "checkForUpdate",
      "outputs": [
        {
          "internalType": "uint256[]",
          "name": "",
          "type": "uint256[]"
        }
      ],
      "stateMutability": "view",
      "type": "function",
      "constant": true
    },
    {
      "inputs": [
        {
          "internalType": "uint256[]",
          "name": "_flowsToStop",
          "type": "uint256[]"
        }
      ],
      "name": "performUpdate",
      "outputs": [],
      "stateMutability": "nonpayable",
      "type": "function"
    },
    {
      "inputs": [
        {
          "internalType": "uint8",
          "name": "_isSupertoken",
          "type": "uint8"
        },
        {
          "internalType": "uint256",
          "name": "_streamAmount",
          "type": "uint256"
        },
        {
          "internalType": "uint256",
          "name": "_streamRate",
          "type": "uint256"
        },
        {
          "internalType": "address",
          "name": "_streamToken",
          "type": "address"
        },
        {
          "internalType": "address",
          "name": "_erc20TokenAddress",
          "type": "address"
        },
        {
          "internalType": "address",
          "name": "_projectOwner",
          "type": "address"
        }
      ],
      "name": "mint",
      "outputs": [],
      "stateMutability": "nonpayable",
      "type": "function"
    },
    {
      "inputs": [
        {
          "internalType": "uint256",
          "name": "_tokenId",
          "type": "uint256"
        }
      ],
      "name": "stopFlow",
      "outputs": [
        {
          "internalType": "bool",
          "name": "",
          "type": "bool"
        }
      ],
      "stateMutability": "nonpayable",
      "type": "function"
    },
    {
      "inputs": [
        {
          "internalType": "uint256",
          "name": "_tokenId",
          "type": "uint256"
        }
      ],
      "name": "withdraw",
      "outputs": [
        {
          "internalType": "bool",
          "name": "",
          "type": "bool"
        }
      ],
      "stateMutability": "nonpayable",
      "type": "function"
    },
    {
      "inputs": [
        {
          "internalType": "uint256",
          "name": "_tokenId",
          "type": "uint256"
        },
        {
          "internalType": "address",
          "name": "_streamToken",
          "type": "address"
        },
        {
          "internalType": "uint256",
          "name": "_fundAmount",
          "type": "uint256"
        }
      ],
      "name": "fundNFT",
      "outputs": [],
      "stateMutability": "nonpayable",
      "type": "function"
    }
  ],
  "bytecode": "0x608060405273f0d7d1d47109ba426b9d8a3cde1941327af1eea3600960006101000a81548173ffffffffffffffffffffffffffffffffffffffff021916908373ffffffffffffffffffffffffffffffffffffffff16021790555073eca8056809e7e8db04a8ff6e4e82cd889a46fe2f600a60006101000a81548173ffffffffffffffffffffffffffffffffffffffff021916908373ffffffffffffffffffffffffffffffffffffffff160217905550348015620000bb57600080fd5b5060405162005ab238038062005ab28339818101604052810190620000e1919062000345565b6040518060400160405280600f81526020017f43726f776466756e64696e674e465400000000000000000000000000000000008152506040518060400160405280600581526020017f43464e46540000000000000000000000000000000000000000000000000000008152508160009080519060200190620001659291906200027e565b5080600190805190602001906200017e9291906200027e565b505050600160068190555080600760006101000a81548173ffffffffffffffffffffffffffffffffffffffff021916908373ffffffffffffffffffffffffffffffffffffffff160217905550600064100000000064040000000064010000000060011717179050600960009054906101000a900473ffffffffffffffffffffffffffffffffffffffff1673ffffffffffffffffffffffffffffffffffffffff1663ad3915c8826040518263ffffffff1660e01b815260040162000242919062000382565b600060405180830381600087803b1580156200025d57600080fd5b505af115801562000272573d6000803e3d6000fd5b5050505050506200045c565b8280546200028c90620003dd565b90600052602060002090601f016020900481019282620002b05760008555620002fc565b82601f10620002cb57805160ff1916838001178555620002fc565b82800160010185558215620002fc579182015b82811115620002fb578251825591602001919060010190620002de565b5b5090506200030b91906200030f565b5090565b5b808211156200032a57600081600090555060010162000310565b5090565b6000815190506200033f8162000442565b92915050565b6000602082840312156200035857600080fd5b600062000368848285016200032e565b91505092915050565b6200037c81620003d3565b82525050565b600060208201905062000399600083018462000371565b92915050565b6000620003ac82620003b3565b9050919050565b600073ffffffffffffffffffffffffffffffffffffffff82169050919050565b6000819050919050565b60006002820490506001821680620003f657607f821691505b602082108114156200040d576200040c62000413565b5b50919050565b7f4e487b7100000000000000000000000000000000000000000000000000000000600052602260045260246000fd5b6200044d816200039f565b81146200045957600080fd5b50565b615646806200046c6000396000f3fe608060405234801561001057600080fd5b50600436106101425760003560e01c806370a08231116100b8578063b88d4fde1161007c578063b88d4fde14610399578063bf162d67146103b5578063c87b56dd146103ed578063ca533dc11461041d578063de6f030d1461043b578063e985e9c51461045757610142565b806370a08231146102e15780637175ed2e146103115780638753dacb1461034157806395d89b411461035f578063a22cb4651461037d57610142565b80632e1a7d4d1161010a5780632e1a7d4d146101fd5780633b9e3f171461022d57806342842e0e146102495780634da756f914610265578063609dd3d8146102955780636352211e146102b157610142565b806301ffc9a71461014757806306fdde0314610177578063081812fc14610195578063095ea7b3146101c557806323b872dd146101e1575b600080fd5b610161600480360381019061015c919061401c565b610487565b60405161016e9190614cd8565b60405180910390f35b61017f610569565b60405161018c9190614d6d565b60405180910390f35b6101af60048036038101906101aa91906140af565b6105fb565b6040516101bc9190614ba3565b60405180910390f35b6101df60048036038101906101da9190613f76565b610680565b005b6101fb60048036038101906101f69190613e70565b610798565b005b610217600480360381019061021291906140af565b6107f8565b6040516102249190614cd8565b60405180910390f35b6102476004803603810190610242919061413d565b610ad8565b005b610263600480360381019061025e9190613e70565b610e3e565b005b61027f600480360381019061027a91906140af565b610e5e565b60405161028c9190614cd8565b60405180910390f35b6102af60048036038101906102aa9190613fb2565b611312565b005b6102cb60048036038101906102c691906140af565b61173c565b6040516102d89190614ba3565b60405180910390f35b6102fb60048036038101906102f69190613e0b565b6117ee565b604051610308919061502f565b60405180910390f35b61032b60048036038101906103269190614101565b6118a6565b604051610338919061502f565b60405180910390f35b6103496118cb565b604051610356919061502f565b60405180910390f35b6103676118d1565b6040516103749190614d6d565b60405180910390f35b61039760048036038101906103929190613f3a565b611963565b005b6103b360048036038101906103ae9190613ebf565b611979565b005b6103cf60048036038101906103ca91906140af565b6119db565b6040516103e49998979695949392919061504a565b60405180910390f35b610407600480360381019061040291906140af565b611a96565b6040516104149190614d6d565b60405180910390f35b610425611b3d565b6040516104329190614cb6565b60405180910390f35b610455600480360381019061045091906141ef565b611cd6565b005b610471600480360381019061046c9190613e34565b6124c9565b60405161047e9190614cd8565b60405180910390f35b60007f80ac58cd000000000000000000000000000000000000000000000000000000007bffffffffffffffffffffffffffffffffffffffffffffffffffffffff1916827bffffffffffffffffffffffffffffffffffffffffffffffffffffffff1916148061055257507f5b5e139f000000000000000000000000000000000000000000000000000000007bffffffffffffffffffffffffffffffffffffffffffffffffffffffff1916827bffffffffffffffffffffffffffffffffffffffffffffffffffffffff1916145b8061056257506105618261255d565b5b9050919050565b6060600080546105789061540d565b80601f01602080910402602001604051908101604052809291908181526020018280546105a49061540d565b80156105f15780601f106105c6576101008083540402835291602001916105f1565b820191906000526020600020905b8154815290600101906020018083116105d457829003601f168201915b5050505050905090565b6000610606826125c7565b610645576040517f08c379a000000000000000000000000000000000000000000000000000000000815260040161063c90614f4f565b60405180910390fd5b6004600083815260200190815260200160002060009054906101000a900473ffffffffffffffffffffffffffffffffffffffff169050919050565b600061068b8261173c565b90508073ffffffffffffffffffffffffffffffffffffffff168373ffffffffffffffffffffffffffffffffffffffff1614156106fc576040517f08c379a00000000000000000000000000000000000000000000000000000000081526004016106f390614faf565b60405180910390fd5b8073ffffffffffffffffffffffffffffffffffffffff1661071b612633565b73ffffffffffffffffffffffffffffffffffffffff16148061074a575061074981610744612633565b6124c9565b5b610789576040517f08c379a000000000000000000000000000000000000000000000000000000000815260040161078090614e4f565b60405180910390fd5b610793838361263b565b505050565b6107a96107a3612633565b826126f4565b6107e8576040517f08c379a00000000000000000000000000000000000000000000000000000000081526004016107df90614fcf565b60405180910390fd5b6107f38383836127d2565b505050565b600060011515600c600084815260200190815260200160002060070160149054906101000a900460ff16151514610864576040517f08c379a000000000000000000000000000000000000000000000000000000000815260040161085b90614daf565b60405180910390fd5b3373ffffffffffffffffffffffffffffffffffffffff16600c600084815260200190815260200160002060070160009054906101000a900473ffffffffffffffffffffffffffffffffffffffff1673ffffffffffffffffffffffffffffffffffffffff1614806109575750600760009054906101000a900473ffffffffffffffffffffffffffffffffffffffff1673ffffffffffffffffffffffffffffffffffffffff16600c600084815260200190815260200160002060070160009054906101000a900473ffffffffffffffffffffffffffffffffffffffff1673ffffffffffffffffffffffffffffffffffffffff16145b610996576040517f08c379a000000000000000000000000000000000000000000000000000000000815260040161098d90614eef565b60405180910390fd5b6000600c600084815260200190815260200160002060060154600c6000858152602001908152602001600020600301546109d091906151e0565b90506000600c6000858152602001908152602001600020600301819055506000600c600085815260200190815260200160002060060181905550600c600084815260200190815260200160002060050160009054906101000a900473ffffffffffffffffffffffffffffffffffffffff1673ffffffffffffffffffffffffffffffffffffffff1663a9059cbb33836040518363ffffffff1660e01b8152600401610a7b929190614c8d565b602060405180830381600087803b158015610a9557600080fd5b505af1158015610aa9573d6000803e3d6000fd5b505050506040513d601f19601f82011682018060405250810190610acd9190613ff3565b506001915050919050565b8173ffffffffffffffffffffffffffffffffffffffff16600c600085815260200190815260200160002060050160009054906101000a900473ffffffffffffffffffffffffffffffffffffffff1673ffffffffffffffffffffffffffffffffffffffff1614610b7c576040517f08c379a0000000000000000000000000000000000000000000000000000000008152600401610b7390614ecf565b60405180910390fd5b808273ffffffffffffffffffffffffffffffffffffffff166370a08231336040518263ffffffff1660e01b8152600401610bb69190614ba3565b60206040518083038186803b158015610bce57600080fd5b505afa158015610be2573d6000803e3d6000fd5b505050506040513d601f19601f82011682018060405250810190610c0691906140d8565b11610c46576040517f08c379a0000000000000000000000000000000000000000000000000000000008152600401610c3d9061500f565b60405180910390fd5b8173ffffffffffffffffffffffffffffffffffffffff166323b872dd3330846040518463ffffffff1660e01b8152600401610c8393929190614c0a565b602060405180830381600087803b158015610c9d57600080fd5b505af1158015610cb1573d6000803e3d6000fd5b505050506040513d601f19601f82011682018060405250810190610cd59190613ff3565b50600c6000848152602001908152602001600020600801339080600181540180825580915050600190039060005260206000200160009091909190916101000a81548173ffffffffffffffffffffffffffffffffffffffff021916908373ffffffffffffffffffffffffffffffffffffffff16021790555080600c600085815260200190815260200160002060030154610d6f91906151e0565b600c60008581526020019081526020016000206003018190555080600b600085815260200190815260200160002060003373ffffffffffffffffffffffffffffffffffffffff1673ffffffffffffffffffffffffffffffffffffffff16815260200190815260200160002054610de591906151e0565b600b600085815260200190815260200160002060003373ffffffffffffffffffffffffffffffffffffffff1673ffffffffffffffffffffffffffffffffffffffff16815260200190815260200160002081905550505050565b610e5983838360405180602001604052806000815250611979565b505050565b6000801515600c600084815260200190815260200160002060070160149054906101000a900460ff16151514610ec9576040517f08c379a0000000000000000000000000000000000000000000000000000000008152600401610ec090614eaf565b60405180910390fd5b3373ffffffffffffffffffffffffffffffffffffffff16600c600084815260200190815260200160002060070160009054906101000a900473ffffffffffffffffffffffffffffffffffffffff1673ffffffffffffffffffffffffffffffffffffffff161480610fbc5750600760009054906101000a900473ffffffffffffffffffffffffffffffffffffffff1673ffffffffffffffffffffffffffffffffffffffff16600c600084815260200190815260200160002060070160009054906101000a900473ffffffffffffffffffffffffffffffffffffffff1673ffffffffffffffffffffffffffffffffffffffff16145b610ffb576040517f08c379a0000000000000000000000000000000000000000000000000000000008152600401610ff290614f0f565b60405180910390fd5b6001600c600084815260200190815260200160002060070160146101000a81548160ff02191690831515021790555060004290506000600c600085815260200190815260200160002060040154600c6000868152602001908152602001600020600001548361106a91906152c1565b6110749190615267565b90506000600c60008681526020019081526020016000206003015482116110ba5781600c6000878152602001908152602001600020600301546110b791906152c1565b90505b80600c600087815260200190815260200160002060030181905550600960009054906101000a900473ffffffffffffffffffffffffffffffffffffffff1673ffffffffffffffffffffffffffffffffffffffff166339255d5b600a60009054906101000a900473ffffffffffffffffffffffffffffffffffffffff1663b4b333c660e01b600c60008a815260200190815260200160002060050160009054906101000a900473ffffffffffffffffffffffffffffffffffffffff1630600c60008c815260200190815260200160002060020160009054906101000a900473ffffffffffffffffffffffffffffffffffffffff16600067ffffffffffffffff8111156111ee577f4e487b7100000000000000000000000000000000000000000000000000000000600052604160045260246000fd5b6040519080825280601f01601f1916602001820160405280156112205781602001600182028036833780820191505090505b506040516024016112349493929190614bbe565b604051602081830303815290604052907bffffffffffffffffffffffffffffffffffffffffffffffffffffffff19166020820180517bffffffffffffffffffffffffffffffffffffffffffffffffffffffff83818316178352505050506040518363ffffffff1660e01b81526004016112ae929190614cf3565b600060405180830381600087803b1580156112c857600080fd5b505af11580156112dc573d6000803e3d6000fd5b505050506040513d6000823e3d601f19601f82011682018060405250810190611305919061406e565b5060019350505050919050565b60005b81518110156117385761136782828151811061135a577f4e487b7100000000000000000000000000000000000000000000000000000000600052603260045260246000fd5b6020026020010151610e5e565b506000600c60008484815181106113a7577f4e487b7100000000000000000000000000000000000000000000000000000000600052603260045260246000fd5b6020026020010151815260200190815260200160002060040154600c60008585815181106113fe577f4e487b7100000000000000000000000000000000000000000000000000000000600052603260045260246000fd5b60200260200101518152602001908152602001600020600101544261142391906152c1565b61142d9190615267565b9050600081600c600086868151811061146f577f4e487b7100000000000000000000000000000000000000000000000000000000600052603260045260246000fd5b602002602001015181526020019081526020016000206006015461149391906152c1565b9050600c60008585815181106114d2577f4e487b7100000000000000000000000000000000000000000000000000000000600052603260045260246000fd5b6020026020010151815260200190815260200160002060050160009054906101000a900473ffffffffffffffffffffffffffffffffffffffff1673ffffffffffffffffffffffffffffffffffffffff1663a9059cbb600c6000878781518110611564577f4e487b7100000000000000000000000000000000000000000000000000000000600052603260045260246000fd5b6020026020010151815260200190815260200160002060070160009054906101000a900473ffffffffffffffffffffffffffffffffffffffff16836040518363ffffffff1660e01b81526004016115bc929190614c8d565b602060405180830381600087803b1580156115d657600080fd5b505af11580156115ea573d6000803e3d6000fd5b505050506040513d601f19601f8201168201806040525081019061160e9190613ff3565b506000600c600086868151811061164e577f4e487b7100000000000000000000000000000000000000000000000000000000600052603260045260246000fd5b60200260200101518152602001908152602001600020600401819055506000600c60008686815181106116aa577f4e487b7100000000000000000000000000000000000000000000000000000000600052603260045260246000fd5b60200260200101518152602001908152602001600020600601819055506000600c6000868681518110611706577f4e487b7100000000000000000000000000000000000000000000000000000000600052603260045260246000fd5b6020026020010151815260200190815260200160002060030181905550505080806117309061543f565b915050611315565b5050565b6000806002600084815260200190815260200160002060009054906101000a900473ffffffffffffffffffffffffffffffffffffffff169050600073ffffffffffffffffffffffffffffffffffffffff168173ffffffffffffffffffffffffffffffffffffffff1614156117e5576040517f08c379a00000000000000000000000000000000000000000000000000000000081526004016117dc90614e8f565b60405180910390fd5b80915050919050565b60008073ffffffffffffffffffffffffffffffffffffffff168273ffffffffffffffffffffffffffffffffffffffff16141561185f576040517f08c379a000000000000000000000000000000000000000000000000000000000815260040161185690614e6f565b60405180910390fd5b600360008373ffffffffffffffffffffffffffffffffffffffff1673ffffffffffffffffffffffffffffffffffffffff168152602001908152602001600020549050919050565b600b602052816000526040600020602052806000526040600020600091509150505481565b60085481565b6060600180546118e09061540d565b80601f016020809104026020016040519081016040528092919081815260200182805461190c9061540d565b80156119595780601f1061192e57610100808354040283529160200191611959565b820191906000526020600020905b81548152906001019060200180831161193c57829003601f168201915b5050505050905090565b61197561196e612633565b8383612a2e565b5050565b61198a611984612633565b836126f4565b6119c9576040517f08c379a00000000000000000000000000000000000000000000000000000000081526004016119c090614fcf565b60405180910390fd5b6119d584848484612b9b565b50505050565b600c6020528060005260406000206000915090508060000154908060010154908060020160009054906101000a900473ffffffffffffffffffffffffffffffffffffffff16908060030154908060040154908060050160009054906101000a900473ffffffffffffffffffffffffffffffffffffffff16908060060154908060070160009054906101000a900473ffffffffffffffffffffffffffffffffffffffff16908060070160149054906101000a900460ff16905089565b6060611aa1826125c7565b611ae0576040517f08c379a0000000000000000000000000000000000000000000000000000000008152600401611ad790614f8f565b60405180910390fd5b6000611aea612bf7565b90506000815111611b0a5760405180602001604052806000815250611b35565b80611b1484612c0e565b604051602001611b25929190614b7f565b6040516020818303038152906040525b915050919050565b6060600060065467ffffffffffffffff811115611b83577f4e487b7100000000000000000000000000000000000000000000000000000000600052604160045260246000fd5b604051908082528060200260200182016040528015611bb15781602001602082028036833780820191505090505b509050600080600190505b600654811015611ccd576000600c6000600654815260200190815260200160002060040154600c600060065481526020019081526020016000206000015442611c0591906152c1565b611c0f9190615267565b9050600c6000838152602001908152602001600020600301548110158015611c5e575060001515600c600084815260200190815260200160002060070160149054906101000a900460ff161515145b15611cb95781848481518110611c9d577f4e487b7100000000000000000000000000000000000000000000000000000000600052603260045260246000fd5b602002602001018181525050600183611cb691906151e0565b92505b508080611cc59061543f565b915050611bbc565b50819250505090565b60004290506000610e1086611ceb9190615267565b90506000600167ffffffffffffffff811115611d30577f4e487b7100000000000000000000000000000000000000000000000000000000600052604160045260246000fd5b604051908082528060200260200182016040528015611d5e5781602001602082028036833780820191505090505b5090503381600081518110611d9c577f4e487b7100000000000000000000000000000000000000000000000000000000600052603260045260246000fd5b602002602001019073ffffffffffffffffffffffffffffffffffffffff16908173ffffffffffffffffffffffffffffffffffffffff168152505060018960ff161415611f53578188611dee91906151e0565b8673ffffffffffffffffffffffffffffffffffffffff166370a08231336040518263ffffffff1660e01b8152600401611e279190614ba3565b60206040518083038186803b158015611e3f57600080fd5b505afa158015611e53573d6000803e3d6000fd5b505050506040513d601f19601f82011682018060405250810190611e7791906140d8565b11611eb7576040517f08c379a0000000000000000000000000000000000000000000000000000000008152600401611eae90614fef565b60405180910390fd5b8573ffffffffffffffffffffffffffffffffffffffff166323b872dd3330858c611ee191906151e0565b6040518463ffffffff1660e01b8152600401611eff93929190614c0a565b602060405180830381600087803b158015611f1957600080fd5b505af1158015611f2d573d6000803e3d6000fd5b505050506040513d601f19601f82011682018060405250810190611f519190613ff3565b505b60028960ff1614156121df578188611f6b91906151e0565b8673ffffffffffffffffffffffffffffffffffffffff166370a08231336040518263ffffffff1660e01b8152600401611fa49190614ba3565b60206040518083038186803b158015611fbc57600080fd5b505afa158015611fd0573d6000803e3d6000fd5b505050506040513d601f19601f82011682018060405250810190611ff491906140d8565b11612034576040517f08c379a000000000000000000000000000000000000000000000000000000000815260040161202b90614fef565b60405180910390fd5b8473ffffffffffffffffffffffffffffffffffffffff166323b872dd3330858c61205e91906151e0565b6040518463ffffffff1660e01b815260040161207c93929190614c0a565b602060405180830381600087803b15801561209657600080fd5b505af11580156120aa573d6000803e3d6000fd5b505050506040513d601f19601f820116820180604052508101906120ce9190613ff3565b508473ffffffffffffffffffffffffffffffffffffffff1663095ea7b387848b6120f891906151e0565b6040518363ffffffff1660e01b8152600401612115929190614c8d565b602060405180830381600087803b15801561212f57600080fd5b505af1158015612143573d6000803e3d6000fd5b505050506040513d601f19601f820116820180604052508101906121679190613ff3565b508573ffffffffffffffffffffffffffffffffffffffff166345977d03838a61219091906151e0565b6040518263ffffffff1660e01b81526004016121ac919061502f565b600060405180830381600087803b1580156121c657600080fd5b505af11580156121da573d6000803e3d6000fd5b505050505b604051806101400160405280848152602001600081526020018573ffffffffffffffffffffffffffffffffffffffff1681526020018981526020018881526020018773ffffffffffffffffffffffffffffffffffffffff1681526020018381526020013373ffffffffffffffffffffffffffffffffffffffff16815260200160001515815260200182815250600c60006006548152602001908152602001600020600082015181600001556020820151816001015560408201518160020160006101000a81548173ffffffffffffffffffffffffffffffffffffffff021916908373ffffffffffffffffffffffffffffffffffffffff160217905550606082015181600301556080820151816004015560a08201518160050160006101000a81548173ffffffffffffffffffffffffffffffffffffffff021916908373ffffffffffffffffffffffffffffffffffffffff16021790555060c0820151816006015560e08201518160070160006101000a81548173ffffffffffffffffffffffffffffffffffffffff021916908373ffffffffffffffffffffffffffffffffffffffff1602179055506101008201518160070160146101000a81548160ff0219169083151502179055506101208201518160080190805190602001906123c5929190613b41565b5090505081886123d591906151e0565b600b6000600654815260200190815260200160002060003373ffffffffffffffffffffffffffffffffffffffff1673ffffffffffffffffffffffffffffffffffffffff1681526020019081526020016000205461243291906151e0565b600b6000600654815260200190815260200160002060003373ffffffffffffffffffffffffffffffffffffffff1673ffffffffffffffffffffffffffffffffffffffff1681526020019081526020016000208190555061249484600654612dbb565b61249f600654612f89565b5060065460088190555060016006546124b891906151e0565b600681905550505050505050505050565b6000600560008473ffffffffffffffffffffffffffffffffffffffff1673ffffffffffffffffffffffffffffffffffffffff16815260200190815260200160002060008373ffffffffffffffffffffffffffffffffffffffff1673ffffffffffffffffffffffffffffffffffffffff16815260200190815260200160002060009054906101000a900460ff16905092915050565b60007f01ffc9a7000000000000000000000000000000000000000000000000000000007bffffffffffffffffffffffffffffffffffffffffffffffffffffffff1916827bffffffffffffffffffffffffffffffffffffffffffffffffffffffff1916149050919050565b60008073ffffffffffffffffffffffffffffffffffffffff166002600084815260200190815260200160002060009054906101000a900473ffffffffffffffffffffffffffffffffffffffff1673ffffffffffffffffffffffffffffffffffffffff1614159050919050565b600033905090565b816004600083815260200190815260200160002060006101000a81548173ffffffffffffffffffffffffffffffffffffffff021916908373ffffffffffffffffffffffffffffffffffffffff160217905550808273ffffffffffffffffffffffffffffffffffffffff166126ae8361173c565b73ffffffffffffffffffffffffffffffffffffffff167f8c5be1e5ebec7d5bd14f71427d1e84f3dd0314c0f7b2291e5b200ac8c7c3b92560405160405180910390a45050565b60006126ff826125c7565b61273e576040517f08c379a000000000000000000000000000000000000000000000000000000000815260040161273590614e2f565b60405180910390fd5b60006127498361173c565b90508073ffffffffffffffffffffffffffffffffffffffff168473ffffffffffffffffffffffffffffffffffffffff1614806127b857508373ffffffffffffffffffffffffffffffffffffffff166127a0846105fb565b73ffffffffffffffffffffffffffffffffffffffff16145b806127c957506127c881856124c9565b5b91505092915050565b8273ffffffffffffffffffffffffffffffffffffffff166127f28261173c565b73ffffffffffffffffffffffffffffffffffffffff1614612848576040517f08c379a000000000000000000000000000000000000000000000000000000000815260040161283f90614f6f565b60405180910390fd5b600073ffffffffffffffffffffffffffffffffffffffff168273ffffffffffffffffffffffffffffffffffffffff1614156128b8576040517f08c379a00000000000000000000000000000000000000000000000000000000081526004016128af90614def565b60405180910390fd5b6128c3838383613288565b6128ce60008261263b565b6001600360008573ffffffffffffffffffffffffffffffffffffffff1673ffffffffffffffffffffffffffffffffffffffff168152602001908152602001600020600082825461291e91906152c1565b925050819055506001600360008473ffffffffffffffffffffffffffffffffffffffff1673ffffffffffffffffffffffffffffffffffffffff168152602001908152602001600020600082825461297591906151e0565b92505081905550816002600083815260200190815260200160002060006101000a81548173ffffffffffffffffffffffffffffffffffffffff021916908373ffffffffffffffffffffffffffffffffffffffff160217905550808273ffffffffffffffffffffffffffffffffffffffff168473ffffffffffffffffffffffffffffffffffffffff167fddf252ad1be2c89b69c2b068fc378daa952ba7f163c4a11628f55a4df523b3ef60405160405180910390a4505050565b8173ffffffffffffffffffffffffffffffffffffffff168373ffffffffffffffffffffffffffffffffffffffff161415612a9d576040517f08c379a0000000000000000000000000000000000000000000000000000000008152600401612a9490614e0f565b60405180910390fd5b80600560008573ffffffffffffffffffffffffffffffffffffffff1673ffffffffffffffffffffffffffffffffffffffff16815260200190815260200160002060008473ffffffffffffffffffffffffffffffffffffffff1673ffffffffffffffffffffffffffffffffffffffff16815260200190815260200160002060006101000a81548160ff0219169083151502179055508173ffffffffffffffffffffffffffffffffffffffff168373ffffffffffffffffffffffffffffffffffffffff167f17307eab39ab6107e8899845ad3d59bd9653f200f220920489ca2b5937696c3183604051612b8e9190614cd8565b60405180910390a3505050565b612ba68484846127d2565b612bb284848484613997565b612bf1576040517f08c379a0000000000000000000000000000000000000000000000000000000008152600401612be890614d8f565b60405180910390fd5b50505050565b606060405180602001604052806000815250905090565b60606000821415612c56576040518060400160405280600181526020017f30000000000000000000000000000000000000000000000000000000000000008152509050612db6565b600082905060005b60008214612c88578080612c719061543f565b915050600a82612c819190615236565b9150612c5e565b60008167ffffffffffffffff811115612cca577f4e487b7100000000000000000000000000000000000000000000000000000000600052604160045260246000fd5b6040519080825280601f01601f191660200182016040528015612cfc5781602001600182028036833780820191505090505b5090505b60008514612daf57600182612d1591906152c1565b9150600a85612d249190615488565b6030612d3091906151e0565b60f81b818381518110612d6c577f4e487b7100000000000000000000000000000000000000000000000000000000600052603260045260246000fd5b60200101907effffffffffffffffffffffffffffffffffffffffffffffffffffffffffffff1916908160001a905350600a85612da89190615236565b9450612d00565b8093505050505b919050565b600073ffffffffffffffffffffffffffffffffffffffff168273ffffffffffffffffffffffffffffffffffffffff161415612e2b576040517f08c379a0000000000000000000000000000000000000000000000000000000008152600401612e2290614f2f565b60405180910390fd5b612e34816125c7565b15612e74576040517f08c379a0000000000000000000000000000000000000000000000000000000008152600401612e6b90614dcf565b60405180910390fd5b612e8060008383613288565b6001600360008473ffffffffffffffffffffffffffffffffffffffff1673ffffffffffffffffffffffffffffffffffffffff1681526020019081526020016000206000828254612ed091906151e0565b92505081905550816002600083815260200190815260200160002060006101000a81548173ffffffffffffffffffffffffffffffffffffffff021916908373ffffffffffffffffffffffffffffffffffffffff160217905550808273ffffffffffffffffffffffffffffffffffffffff16600073ffffffffffffffffffffffffffffffffffffffff167fddf252ad1be2c89b69c2b068fc378daa952ba7f163c4a11628f55a4df523b3ef60405160405180910390a45050565b600080600c600084815260200190815260200160002060040154600c600085815260200190815260200160002060030154612fc49190615236565b9050600081600c600086815260200190815260200160002060000154612fea91906151e0565b905080600c6000868152602001908152602001600020600101819055506000600c600086815260200190815260200160002060070160146101000a81548160ff021916908315150217905550600960009054906101000a900473ffffffffffffffffffffffffffffffffffffffff1673ffffffffffffffffffffffffffffffffffffffff166339255d5b600a60009054906101000a900473ffffffffffffffffffffffffffffffffffffffff166362fc305e60e01b600c600089815260200190815260200160002060050160009054906101000a900473ffffffffffffffffffffffffffffffffffffffff16600c60008a815260200190815260200160002060020160009054906101000a900473ffffffffffffffffffffffffffffffffffffffff16600c60008b815260200190815260200160002060040154600067ffffffffffffffff811115613165577f4e487b7100000000000000000000000000000000000000000000000000000000600052604160045260246000fd5b6040519080825280601f01601f1916602001820160405280156131975781602001600182028036833780820191505090505b506040516024016131ab9493929190614c41565b604051602081830303815290604052907bffffffffffffffffffffffffffffffffffffffffffffffffffffffff19166020820180517bffffffffffffffffffffffffffffffffffffffffffffffffffffffff83818316178352505050506040518363ffffffff1660e01b8152600401613225929190614cf3565b600060405180830381600087803b15801561323f57600080fd5b505af1158015613253573d6000803e3d6000fd5b505050506040513d6000823e3d601f19601f8201168201806040525081019061327c919061406e565b50600192505050919050565b600073ffffffffffffffffffffffffffffffffffffffff168373ffffffffffffffffffffffffffffffffffffffff1614613992576000600a60009054906101000a900473ffffffffffffffffffffffffffffffffffffffff1673ffffffffffffffffffffffffffffffffffffffff1663e6a1e888600c600085815260200190815260200160002060050160009054906101000a900473ffffffffffffffffffffffffffffffffffffffff1630600c600087815260200190815260200160002060020160009054906101000a900473ffffffffffffffffffffffffffffffffffffffff166040518463ffffffff1660e01b815260040161338993929190614d36565b60806040518083038186803b1580156133a157600080fd5b505afa1580156133b5573d6000803e3d6000fd5b505050506040513d601f19601f820116820180604052508101906133d9919061418c565b5050915050600081600b0b13156136c4576133f382610e5e565b5082600c600084815260200190815260200160002060020160006101000a81548173ffffffffffffffffffffffffffffffffffffffff021916908373ffffffffffffffffffffffffffffffffffffffff1602179055506000600c600084815260200190815260200160002060070160146101000a81548160ff021916908315150217905550600960009054906101000a900473ffffffffffffffffffffffffffffffffffffffff1673ffffffffffffffffffffffffffffffffffffffff166339255d5b600a60009054906101000a900473ffffffffffffffffffffffffffffffffffffffff166362fc305e60e01b600c600087815260200190815260200160002060050160009054906101000a900473ffffffffffffffffffffffffffffffffffffffff16600c600088815260200190815260200160002060020160009054906101000a900473ffffffffffffffffffffffffffffffffffffffff16600c600089815260200190815260200160002060040154600067ffffffffffffffff8111156135a7577f4e487b7100000000000000000000000000000000000000000000000000000000600052604160045260246000fd5b6040519080825280601f01601f1916602001820160405280156135d95781602001600182028036833780820191505090505b506040516024016135ed9493929190614c41565b604051602081830303815290604052907bffffffffffffffffffffffffffffffffffffffffffffffffffffffff19166020820180517bffffffffffffffffffffffffffffffffffffffffffffffffffffffff83818316178352505050506040518363ffffffff1660e01b8152600401613667929190614cf3565b600060405180830381600087803b15801561368157600080fd5b505af1158015613695573d6000803e3d6000fd5b505050506040513d6000823e3d601f19601f820116820180604052508101906136be919061406e565b50613990565b82600c600084815260200190815260200160002060020160006101000a81548173ffffffffffffffffffffffffffffffffffffffff021916908373ffffffffffffffffffffffffffffffffffffffff1602179055506000600c600084815260200190815260200160002060070160146101000a81548160ff021916908315150217905550600960009054906101000a900473ffffffffffffffffffffffffffffffffffffffff1673ffffffffffffffffffffffffffffffffffffffff166339255d5b600a60009054906101000a900473ffffffffffffffffffffffffffffffffffffffff166362fc305e60e01b600c600087815260200190815260200160002060050160009054906101000a900473ffffffffffffffffffffffffffffffffffffffff16600c600088815260200190815260200160002060020160009054906101000a900473ffffffffffffffffffffffffffffffffffffffff16600c600089815260200190815260200160002060040154600067ffffffffffffffff811115613877577f4e487b7100000000000000000000000000000000000000000000000000000000600052604160045260246000fd5b6040519080825280601f01601f1916602001820160405280156138a95781602001600182028036833780820191505090505b506040516024016138bd9493929190614c41565b604051602081830303815290604052907bffffffffffffffffffffffffffffffffffffffffffffffffffffffff19166020820180517bffffffffffffffffffffffffffffffffffffffffffffffffffffffff83818316178352505050506040518363ffffffff1660e01b8152600401613937929190614cf3565b600060405180830381600087803b15801561395157600080fd5b505af1158015613965573d6000803e3d6000fd5b505050506040513d6000823e3d601f19601f8201168201806040525081019061398e919061406e565b505b505b505050565b60006139b88473ffffffffffffffffffffffffffffffffffffffff16613b2e565b15613b21578373ffffffffffffffffffffffffffffffffffffffff1663150b7a026139e1612633565b8786866040518563ffffffff1660e01b8152600401613a039493929190614c41565b602060405180830381600087803b158015613a1d57600080fd5b505af1925050508015613a4e57506040513d601f19601f82011682018060405250810190613a4b9190614045565b60015b613ad1573d8060008114613a7e576040519150601f19603f3d011682016040523d82523d6000602084013e613a83565b606091505b50600081511415613ac9576040517f08c379a0000000000000000000000000000000000000000000000000000000008152600401613ac090614d8f565b60405180910390fd5b805181602001fd5b63150b7a0260e01b7bffffffffffffffffffffffffffffffffffffffffffffffffffffffff1916817bffffffffffffffffffffffffffffffffffffffffffffffffffffffff191614915050613b26565b600190505b949350505050565b600080823b905060008111915050919050565b828054828255906000526020600020908101928215613bba579160200282015b82811115613bb95782518260006101000a81548173ffffffffffffffffffffffffffffffffffffffff021916908373ffffffffffffffffffffffffffffffffffffffff16021790555091602001919060010190613b61565b5b509050613bc79190613bcb565b5090565b5b80821115613be4576000816000905550600101613bcc565b5090565b6000613bfb613bf684615108565b6150d7565b90508083825260208201905082856020860282011115613c1a57600080fd5b60005b85811015613c4a5781613c308882613dcc565b845260208401935060208301925050600181019050613c1d565b5050509392505050565b6000613c67613c6284615134565b6150d7565b905082815260208101848484011115613c7f57600080fd5b613c8a8482856153cb565b509392505050565b6000613ca5613ca084615134565b6150d7565b905082815260208101848484011115613cbd57600080fd5b613cc88482856153da565b509392505050565b600081359050613cdf81615586565b92915050565b600082601f830112613cf657600080fd5b8135613d06848260208601613be8565b91505092915050565b600081359050613d1e8161559d565b92915050565b600081519050613d338161559d565b92915050565b600081359050613d48816155b4565b92915050565b600081519050613d5d816155b4565b92915050565b600082601f830112613d7457600080fd5b8135613d84848260208601613c54565b91505092915050565b600082601f830112613d9e57600080fd5b8151613dae848260208601613c92565b91505092915050565b600081519050613dc6816155cb565b92915050565b600081359050613ddb816155e2565b92915050565b600081519050613df0816155e2565b92915050565b600081359050613e05816155f9565b92915050565b600060208284031215613e1d57600080fd5b6000613e2b84828501613cd0565b91505092915050565b60008060408385031215613e4757600080fd5b6000613e5585828601613cd0565b9250506020613e6685828601613cd0565b9150509250929050565b600080600060608486031215613e8557600080fd5b6000613e9386828701613cd0565b9350506020613ea486828701613cd0565b9250506040613eb586828701613dcc565b9150509250925092565b60008060008060808587031215613ed557600080fd5b6000613ee387828801613cd0565b9450506020613ef487828801613cd0565b9350506040613f0587828801613dcc565b925050606085013567ffffffffffffffff811115613f2257600080fd5b613f2e87828801613d63565b91505092959194509250565b60008060408385031215613f4d57600080fd5b6000613f5b85828601613cd0565b9250506020613f6c85828601613d0f565b9150509250929050565b60008060408385031215613f8957600080fd5b6000613f9785828601613cd0565b9250506020613fa885828601613dcc565b9150509250929050565b600060208284031215613fc457600080fd5b600082013567ffffffffffffffff811115613fde57600080fd5b613fea84828501613ce5565b91505092915050565b60006020828403121561400557600080fd5b600061401384828501613d24565b91505092915050565b60006020828403121561402e57600080fd5b600061403c84828501613d39565b91505092915050565b60006020828403121561405757600080fd5b600061406584828501613d4e565b91505092915050565b60006020828403121561408057600080fd5b600082015167ffffffffffffffff81111561409a57600080fd5b6140a684828501613d8d565b91505092915050565b6000602082840312156140c157600080fd5b60006140cf84828501613dcc565b91505092915050565b6000602082840312156140ea57600080fd5b60006140f884828501613de1565b91505092915050565b6000806040838503121561411457600080fd5b600061412285828601613dcc565b925050602061413385828601613cd0565b9150509250929050565b60008060006060848603121561415257600080fd5b600061416086828701613dcc565b935050602061417186828701613cd0565b925050604061418286828701613dcc565b9150509250925092565b600080600080608085870312156141a257600080fd5b60006141b087828801613de1565b94505060206141c187828801613db7565b93505060406141d287828801613de1565b92505060606141e387828801613de1565b91505092959194509250565b60008060008060008060c0878903121561420857600080fd5b600061421689828a01613df6565b965050602061422789828a01613dcc565b955050604061423889828a01613dcc565b945050606061424989828a01613cd0565b935050608061425a89828a01613cd0565b92505060a061426b89828a01613cd0565b9150509295509295509295565b60006142848383614b61565b60208301905092915050565b614299816152f5565b82525050565b60006142aa82615174565b6142b481856151a2565b93506142bf83615164565b8060005b838110156142f05781516142d78882614278565b97506142e283615195565b9250506001810190506142c3565b5085935050505092915050565b61430681615307565b82525050565b60006143178261517f565b61432181856151b3565b93506143318185602086016153da565b61433a81615575565b840191505092915050565b61434e81615383565b82525050565b61435d816153a7565b82525050565b600061436e8261518a565b61437881856151c4565b93506143888185602086016153da565b61439181615575565b840191505092915050565b60006143a78261518a565b6143b181856151d5565b93506143c18185602086016153da565b80840191505092915050565b60006143da6032836151c4565b91507f4552433732313a207472616e7366657220746f206e6f6e20455243373231526560008301527f63656976657220696d706c656d656e74657200000000000000000000000000006020830152604082019050919050565b60006144406019836151c4565b91507f53747265616d206973206e6f742073746f7070656420796574000000000000006000830152602082019050919050565b6000614480601c836151c4565b91507f4552433732313a20746f6b656e20616c7265616479206d696e746564000000006000830152602082019050919050565b60006144c06002836151b3565b91507f30780000000000000000000000000000000000000000000000000000000000006000830152602082019050919050565b60006145006024836151c4565b91507f4552433732313a207472616e7366657220746f20746865207a65726f2061646460008301527f72657373000000000000000000000000000000000000000000000000000000006020830152604082019050919050565b60006145666019836151c4565b91507f4552433732313a20617070726f766520746f2063616c6c6572000000000000006000830152602082019050919050565b60006145a6602c836151c4565b91507f4552433732313a206f70657261746f7220717565727920666f72206e6f6e657860008301527f697374656e7420746f6b656e00000000000000000000000000000000000000006020830152604082019050919050565b600061460c6038836151c4565b91507f4552433732313a20617070726f76652063616c6c6572206973206e6f74206f7760008301527f6e6572206e6f7220617070726f76656420666f7220616c6c00000000000000006020830152604082019050919050565b6000614672602a836151c4565b91507f4552433732313a2062616c616e636520717565727920666f7220746865207a6560008301527f726f2061646472657373000000000000000000000000000000000000000000006020830152604082019050919050565b60006146d86029836151c4565b91507f4552433732313a206f776e657220717565727920666f72206e6f6e657869737460008301527f656e7420746f6b656e00000000000000000000000000000000000000000000006020830152604082019050919050565b600061473e6019836151c4565b91507f53747265616d20697320616c72656164792073746f70706564000000000000006000830152602082019050919050565b600061477e6034836151c4565b91507f596f752063616e206f6e6c792066756e642074686520746f6b656e207468617460008301527f20697320616c72656164792073747265616d65640000000000000000000000006020830152604082019050919050565b60006147e4601f836151c4565b91507f596f7520617265206e6f7420616c6c6f77656420746f207769746864726177006000830152602082019050919050565b60006148246026836151c4565b91507f596f7520617265206e6f7420616c6c6f77656420746f2073746f70207468652060008301527f73747265616d00000000000000000000000000000000000000000000000000006020830152604082019050919050565b600061488a6020836151c4565b91507f4552433732313a206d696e7420746f20746865207a65726f20616464726573736000830152602082019050919050565b60006148ca602c836151c4565b91507f4552433732313a20617070726f76656420717565727920666f72206e6f6e657860008301527f697374656e7420746f6b656e00000000000000000000000000000000000000006020830152604082019050919050565b60006149306029836151c4565b91507f4552433732313a207472616e73666572206f6620746f6b656e2074686174206960008301527f73206e6f74206f776e00000000000000000000000000000000000000000000006020830152604082019050919050565b6000614996602f836151c4565b91507f4552433732314d657461646174613a2055524920717565727920666f72206e6f60008301527f6e6578697374656e7420746f6b656e00000000000000000000000000000000006020830152604082019050919050565b60006149fc6021836151c4565b91507f4552433732313a20617070726f76616c20746f2063757272656e74206f776e6560008301527f72000000000000000000000000000000000000000000000000000000000000006020830152604082019050919050565b6000614a626031836151c4565b91507f4552433732313a207472616e736665722063616c6c6572206973206e6f74206f60008301527f776e6572206e6f7220617070726f7665640000000000000000000000000000006020830152604082019050919050565b6000614ac8603e836151c4565b91507f4e6f7420656e6f7567682066756e647320696e20796f75722077616c6c65742060008301527f746f2070617920666f722073747265616d20616e6420736563757269747900006020830152604082019050919050565b6000614b2e601f836151c4565b91507f4e6f7420656e6f7567682066756e647320696e20796f75722077616c6c6574006000830152602082019050919050565b614b6a8161536c565b82525050565b614b798161536c565b82525050565b6000614b8b828561439c565b9150614b97828461439c565b91508190509392505050565b6000602082019050614bb86000830184614290565b92915050565b6000608082019050614bd36000830187614290565b614be06020830186614290565b614bed6040830185614290565b8181036060830152614bff818461430c565b905095945050505050565b6000606082019050614c1f6000830186614290565b614c2c6020830185614290565b614c396040830184614b70565b949350505050565b6000608082019050614c566000830187614290565b614c636020830186614290565b614c706040830185614b70565b8181036060830152614c82818461430c565b905095945050505050565b6000604082019050614ca26000830185614290565b614caf6020830184614b70565b9392505050565b60006020820190508181036000830152614cd0818461429f565b905092915050565b6000602082019050614ced60008301846142fd565b92915050565b6000606082019050614d086000830185614345565b8181036020830152614d1a818461430c565b90508181036040830152614d2d816144b3565b90509392505050565b6000606082019050614d4b6000830186614354565b614d586020830185614290565b614d656040830184614290565b949350505050565b60006020820190508181036000830152614d878184614363565b905092915050565b60006020820190508181036000830152614da8816143cd565b9050919050565b60006020820190508181036000830152614dc881614433565b9050919050565b60006020820190508181036000830152614de881614473565b9050919050565b60006020820190508181036000830152614e08816144f3565b9050919050565b60006020820190508181036000830152614e2881614559565b9050919050565b60006020820190508181036000830152614e4881614599565b9050919050565b60006020820190508181036000830152614e68816145ff565b9050919050565b60006020820190508181036000830152614e8881614665565b9050919050565b60006020820190508181036000830152614ea8816146cb565b9050919050565b60006020820190508181036000830152614ec881614731565b9050919050565b60006020820190508181036000830152614ee881614771565b9050919050565b60006020820190508181036000830152614f08816147d7565b9050919050565b60006020820190508181036000830152614f2881614817565b9050919050565b60006020820190508181036000830152614f488161487d565b9050919050565b60006020820190508181036000830152614f68816148bd565b9050919050565b60006020820190508181036000830152614f8881614923565b9050919050565b60006020820190508181036000830152614fa881614989565b9050919050565b60006020820190508181036000830152614fc8816149ef565b9050919050565b60006020820190508181036000830152614fe881614a55565b9050919050565b6000602082019050818103600083015261500881614abb565b9050919050565b6000602082019050818103600083015261502881614b21565b9050919050565b60006020820190506150446000830184614b70565b92915050565b600061012082019050615060600083018c614b70565b61506d602083018b614b70565b61507a604083018a614290565b6150876060830189614b70565b6150946080830188614b70565b6150a160a0830187614290565b6150ae60c0830186614b70565b6150bb60e0830185614290565b6150c96101008301846142fd565b9a9950505050505050505050565b6000604051905081810181811067ffffffffffffffff821117156150fe576150fd615546565b5b8060405250919050565b600067ffffffffffffffff82111561512357615122615546565b5b602082029050602081019050919050565b600067ffffffffffffffff82111561514f5761514e615546565b5b601f19601f8301169050602081019050919050565b6000819050602082019050919050565b600081519050919050565b600081519050919050565b600081519050919050565b6000602082019050919050565b600082825260208201905092915050565b600082825260208201905092915050565b600082825260208201905092915050565b600081905092915050565b60006151eb8261536c565b91506151f68361536c565b9250827fffffffffffffffffffffffffffffffffffffffffffffffffffffffffffffffff0382111561522b5761522a6154b9565b5b828201905092915050565b60006152418261536c565b915061524c8361536c565b92508261525c5761525b6154e8565b5b828204905092915050565b60006152728261536c565b915061527d8361536c565b9250817fffffffffffffffffffffffffffffffffffffffffffffffffffffffffffffffff04831182151516156152b6576152b56154b9565b5b828202905092915050565b60006152cc8261536c565b91506152d78361536c565b9250828210156152ea576152e96154b9565b5b828203905092915050565b60006153008261534c565b9050919050565b60008115159050919050565b60007fffffffff0000000000000000000000000000000000000000000000000000000082169050919050565b600081600b0b9050919050565b600073ffffffffffffffffffffffffffffffffffffffff82169050919050565b6000819050919050565b600060ff82169050919050565b600061538e82615395565b9050919050565b60006153a08261534c565b9050919050565b60006153b2826153b9565b9050919050565b60006153c48261534c565b9050919050565b82818337600083830152505050565b60005b838110156153f85780820151818401526020810190506153dd565b83811115615407576000848401525b50505050565b6000600282049050600182168061542557607f821691505b6020821081141561543957615438615517565b5b50919050565b600061544a8261536c565b91507fffffffffffffffffffffffffffffffffffffffffffffffffffffffffffffffff82141561547d5761547c6154b9565b5b600182019050919050565b60006154938261536c565b915061549e8361536c565b9250826154ae576154ad6154e8565b5b828206905092915050565b7f4e487b7100000000000000000000000000000000000000000000000000000000600052601160045260246000fd5b7f4e487b7100000000000000000000000000000000000000000000000000000000600052601260045260246000fd5b7f4e487b7100000000000000000000000000000000000000000000000000000000600052602260045260246000fd5b7f4e487b7100000000000000000000000000000000000000000000000000000000600052604160045260246000fd5b6000601f19601f8301169050919050565b61558f816152f5565b811461559a57600080fd5b50565b6155a681615307565b81146155b157600080fd5b50565b6155bd81615313565b81146155c857600080fd5b50565b6155d48161533f565b81146155df57600080fd5b50565b6155eb8161536c565b81146155f657600080fd5b50565b61560281615376565b811461560d57600080fd5b5056fea2646970667358221220abb9ee137b2207907371b591982d4e54cf78518ebd5961625b0fb2a354262dd964736f6c63430008000033",
  "immutableReferences": {},
  "source": " //SPDX-License-Identifier: MIT\r\npragma solidity ^0.8.0;\r\n\r\n//import {RedirectAll, ISuperToken, IConstantFlowAgreementV1, ISuperfluid} from \"./RedirectAll.sol\";\r\nimport {ERC721} from \"@openzeppelin/contracts/token/ERC721/ERC721.sol\";\r\nimport {IConstantFlowAgreementV1} from \"@superfluid-finance/ethereum-contracts/contracts/interfaces/agreements/IConstantFlowAgreementV1.sol\";\r\nimport {IERC20} from \"@openzeppelin/contracts/interfaces/IERC20.sol\";\r\nimport {\r\n    ISuperfluid,\r\n    ISuperToken,\r\n    ISuperApp,\r\n    ISuperAgreement,\r\n    ContextDefinitions,\r\n    SuperAppDefinitions\r\n} from \"@superfluid-finance/ethereum-contracts/contracts/interfaces/superfluid/ISuperfluid.sol\";\r\n\r\n// Interface for ChainlinkKeepers\r\n//interface KeeperCompatibleInterface {\r\n//    function checkUpkeep(bytes calldata checkData) external returns (bool upkeepNeeded, bytes memory performData);\r\n//    function performUpkeep(bytes calldata performData) external;\r\n//}\r\n\r\n//contract MagePadNFT is ERC721, RedirectAll, KeeperCompatibleInterface {\r\ncontract CrowdfundingNFT is ERC721 {    \r\n    uint256 tokenId;\r\n    address operator;\r\n    uint256 public oldTokenId;\r\n    \r\n    //For Kovantestnet\r\n    ISuperfluid host = ISuperfluid(0xF0d7d1D47109bA426B9D8A3Cde1941327af1eea3);\r\n    IConstantFlowAgreementV1 cfa = IConstantFlowAgreementV1(0xECa8056809e7e8db04A8fF6e4E82cD889a46FE2F);\r\n    \r\n    // Storing single NFT Data\r\n    struct nftData {\r\n        uint256 startingBlockTime;\r\n        uint256 endingBlockTime;\r\n        address streamReceiver;\r\n        uint256 streamAmount;\r\n        uint256 streamRate;\r\n        address streamToken;\r\n        uint256 securityAmount;\r\n        address minter;\r\n        bool isStopped;\r\n        address[] investors;\r\n    }\r\n\r\n    // storing which address funded which nft with how many tokens\r\n    mapping (uint256 => mapping(address => uint256)) public nftAccounting;\r\n\r\n    // Storing all NFTs\r\n    mapping (uint256 => nftData) public allNFTs;\r\n\r\n    constructor (address _operator) ERC721 (\"CrowdfundingNFT\", \"CFNFT\") {\r\n        tokenId = 1;\r\n        operator = _operator;\r\n        \r\n        uint256 configWord =\r\n            SuperAppDefinitions.APP_LEVEL_FINAL |\r\n            SuperAppDefinitions.BEFORE_AGREEMENT_CREATED_NOOP |\r\n            SuperAppDefinitions.BEFORE_AGREEMENT_UPDATED_NOOP |\r\n            SuperAppDefinitions.BEFORE_AGREEMENT_TERMINATED_NOOP;\r\n\r\n        host.registerApp(configWord);\r\n    }\r\n\r\n    function checkForUpdate() public view returns(uint256[] memory) {\r\n        uint256[] memory flowsToStop = new uint256[](tokenId);\r\n        uint256 counter = 0;\r\n        for(uint256 i = 1; i < tokenId; i++) {\r\n            //calculating the actual streamed amount\r\n            uint256 _alreadyStreamedAmount = (block.timestamp - allNFTs[tokenId].startingBlockTime) * allNFTs[tokenId].streamRate; \r\n            if(_alreadyStreamedAmount >= allNFTs[i].streamAmount && allNFTs[i].isStopped == false) {\r\n                flowsToStop[counter] = i;\r\n                counter = counter + 1;\r\n            }\r\n        }\r\n        return flowsToStop;        \r\n    }\r\n\r\n    function performUpdate(uint256[] memory _flowsToStop) public {\r\n        for(uint256 i = 0; i < _flowsToStop.length; i++) {\r\n            // Stop the Flow\r\n            stopFlow(_flowsToStop[i]);\r\n            uint256 _toMuchStreamedAmount = (block.timestamp - allNFTs[_flowsToStop[i]].endingBlockTime) * allNFTs[_flowsToStop[i]].streamRate;\r\n            uint256 _resultingSecurityAmount = allNFTs[_flowsToStop[i]].securityAmount - _toMuchStreamedAmount;\r\n            ISuperToken(allNFTs[_flowsToStop[i]].streamToken).transfer(allNFTs[_flowsToStop[i]].minter, _resultingSecurityAmount);\r\n            // set NFT to zero\r\n            allNFTs[_flowsToStop[i]].streamRate = 0;\r\n            allNFTs[_flowsToStop[i]].securityAmount = 0;\r\n            allNFTs[_flowsToStop[i]].streamAmount = 0;\r\n        }\r\n    }\r\n\r\n    function mint(uint8 _isSupertoken, uint256 _streamAmount, uint256 _streamRate, address _streamToken, address _erc20TokenAddress, address _projectOwner) public {      \r\n        uint256 _startingBlockTime = block.timestamp;\r\n        uint256 _securityAmount = _streamRate * (60 * 60);\r\n        address[] memory _investor = new address[](1);\r\n        _investor[0] = msg.sender;\r\n\r\n        //decide if the token to be streamed is a supertoken or not\r\n        if(_isSupertoken == 1) {\r\n            //get the supertoken out of the senders pocket and store the balance in the mapping\r\n            require(ISuperToken(_streamToken).balanceOf(msg.sender) > (_streamAmount + _securityAmount), \"Not enough funds in your wallet to pay for stream and security\");\r\n            ISuperToken(_streamToken).transferFrom(msg.sender, address(this), (_streamAmount + _securityAmount));\r\n        } \r\n        if(_isSupertoken == 2) {\r\n            //get the erc20 token out of the senders pocket, store and start upgrading\r\n            require(IERC20(_streamToken).balanceOf(msg.sender) > (_streamAmount + _securityAmount), \"Not enough funds in your wallet to pay for stream and security\");\r\n            IERC20(_erc20TokenAddress).transferFrom(msg.sender, address(this), (_streamAmount + _securityAmount));\r\n            //approve wrapper to spend ERC20_token\r\n            IERC20(_erc20TokenAddress).approve(_streamToken, (_streamAmount + _securityAmount));\r\n            //upgrading the ERC20_token \r\n            ISuperToken(_streamToken).upgrade((_streamAmount + _securityAmount));        \r\n        }\r\n\r\n        //storing nft data on chain\r\n        allNFTs[tokenId] = nftData(_startingBlockTime, 0, _projectOwner, _streamAmount, _streamRate, _streamToken, _securityAmount, msg.sender, false, _investor);\r\n        //add investor to the accounting\r\n        nftAccounting[tokenId][msg.sender] = nftAccounting[tokenId][msg.sender] + (_streamAmount + _securityAmount);\r\n        //actual minting of the nft directly in the wallet of the project\r\n        _mint(_projectOwner, tokenId);\r\n        //start the flow\r\n        _startFlow(tokenId);\r\n        oldTokenId = tokenId;\r\n        tokenId = tokenId + 1;\r\n    }\r\n\r\n    function _startFlow(uint256 _tokenId) private returns(bool) {\r\n        // calculating the endingBlock\r\n        uint256 _duration = allNFTs[_tokenId].streamAmount / allNFTs[_tokenId].streamRate;\r\n        uint256 _endingBlock = allNFTs[_tokenId].startingBlockTime + _duration;\r\n        allNFTs[_tokenId].endingBlockTime = _endingBlock;\r\n        allNFTs[_tokenId].isStopped = false;\r\n        host.callAgreement(cfa, abi.encodeWithSelector(cfa.createFlow.selector, allNFTs[_tokenId].streamToken, allNFTs[_tokenId].streamReceiver, allNFTs[_tokenId].streamRate, new bytes(0)), \"0x\");\r\n        return true;\r\n    }\r\n\r\n    function stopFlow(uint256 _tokenId) public returns(bool) {\r\n        require(allNFTs[_tokenId].isStopped == false, \"Stream is already stopped\");\r\n        require(allNFTs[_tokenId].minter == msg.sender || allNFTs[_tokenId].minter == operator, \"You are not allowed to stop the stream\");\r\n        allNFTs[_tokenId].isStopped = true;\r\n        // calculating the already streamed amount and set the rest of initial streaming amount to the new streamAmount for this nft\r\n        uint256 _actualTime = block.timestamp;\r\n        uint256 _alreadyStreamedAmount = (_actualTime - allNFTs[_tokenId].startingBlockTime) * allNFTs[_tokenId].streamRate;\r\n        // _newStreamAmount as an uint256 value can never be negative\r\n        uint256 _newStreamAmount = 0;\r\n        if(_alreadyStreamedAmount <= allNFTs[_tokenId].streamAmount) {\r\n            _newStreamAmount = allNFTs[_tokenId].streamAmount - _alreadyStreamedAmount;\r\n        }\r\n        allNFTs[_tokenId].streamAmount = _newStreamAmount;\r\n        host.callAgreement(cfa, abi.encodeWithSelector(cfa.deleteFlow.selector, allNFTs[_tokenId].streamToken, address(this), allNFTs[_tokenId].streamReceiver, new bytes(0)), \"0x\");\r\n        return true;\r\n    }\r\n\r\n    function withdraw(uint256 _tokenId) public returns(bool) {\r\n        require(allNFTs[_tokenId].isStopped == true, \"Stream is not stopped yet\");\r\n        require(allNFTs[_tokenId].minter == msg.sender || allNFTs[_tokenId].minter == operator, \"You are not allowed to withdraw\");\r\n        uint256 balance = allNFTs[_tokenId].streamAmount + allNFTs[_tokenId].securityAmount;\r\n        allNFTs[_tokenId].streamAmount = 0;\r\n        allNFTs[_tokenId].securityAmount = 0;\r\n        ISuperToken(allNFTs[_tokenId].streamToken).transfer(msg.sender, balance);\r\n        return true;\r\n    }\r\n\r\n    function fundNFT(uint256 _tokenId, address _streamToken, uint256 _fundAmount) public {\r\n        require(allNFTs[_tokenId].streamToken == _streamToken, \"You can only fund the token that is already streamed\");\r\n        //get the supertoken out of the senders pocket and store the balance in the mapping\r\n        require(ISuperToken(_streamToken).balanceOf(msg.sender) > _fundAmount, \"Not enough funds in your wallet\");\r\n        ISuperToken(_streamToken).transferFrom(msg.sender, address(this), _fundAmount); \r\n        \r\n        //adding the investor to the nft\r\n        allNFTs[_tokenId].investors.push(msg.sender);\r\n        //adding the fundingamount to the nft\r\n        allNFTs[_tokenId].streamAmount = allNFTs[_tokenId].streamAmount + _fundAmount;\r\n        //add investor to the accounting\r\n        nftAccounting[_tokenId][msg.sender] = nftAccounting[_tokenId][msg.sender] + _fundAmount;\r\n        //calculating \r\n        //update stream\r\n        //host.callAgreement(cfa, abi.encodeWithSelector(cfa.updateFlow.selector, allNFTs[_tokenId].streamToken, allNFTs[_tokenId].streamReceiver, allNFTs[_tokenId].streamRate, new bytes(0)), \"0x\");\r\n    }\r\n\r\n    //now I will insert a nice little hook in the _transfer, including the RedirectAll function I need\r\n    function _beforeTokenTransfer(address from, address to, uint256 _tokenId) internal override {\r\n        // should not be called if the nft is minted\r\n        if(from != address(0)) {\r\n            (,int96 outFlowRate,,) = cfa.getFlow(ISuperToken(allNFTs[_tokenId].streamToken), address(this), allNFTs[_tokenId].streamReceiver);\r\n            if(outFlowRate > 0) {\r\n                stopFlow(_tokenId);\r\n                allNFTs[_tokenId].streamReceiver = to;\r\n                allNFTs[_tokenId].isStopped = false;\r\n                host.callAgreement(cfa, abi.encodeWithSelector(cfa.createFlow.selector, allNFTs[_tokenId].streamToken, allNFTs[_tokenId].streamReceiver, allNFTs[_tokenId].streamRate, new bytes(0)), \"0x\");\r\n            }\r\n            else {\r\n              allNFTs[_tokenId].streamReceiver = to;\r\n              allNFTs[_tokenId].isStopped = false;\r\n              host.callAgreement(cfa, abi.encodeWithSelector(cfa.createFlow.selector, allNFTs[_tokenId].streamToken, allNFTs[_tokenId].streamReceiver, allNFTs[_tokenId].streamRate, new bytes(0)), \"0x\");\r\n            }\r\n        }\r\n    }\r\n}",
  "sourcePath": "D:\\Programming\\NFT-Hack\\contracts\\CrowdfundingNFT.sol",
  "compiler": {
    "name": "solc",
    "version": "0.8.0+commit.c7dfd78e.Emscripten.clang"
  },
  "schemaVersion": "3.4.3",
  "updatedAt": "2022-01-15T12:38:42.645Z",
  "networkType": "ethereum",
  "devdoc": {
    "kind": "dev",
    "methods": {
      "approve(address,uint256)": {
        "details": "See {IERC721-approve}."
      },
      "balanceOf(address)": {
        "details": "See {IERC721-balanceOf}."
      },
      "getApproved(uint256)": {
        "details": "See {IERC721-getApproved}."
      },
      "isApprovedForAll(address,address)": {
        "details": "See {IERC721-isApprovedForAll}."
      },
      "name()": {
        "details": "See {IERC721Metadata-name}."
      },
      "ownerOf(uint256)": {
        "details": "See {IERC721-ownerOf}."
      },
      "safeTransferFrom(address,address,uint256)": {
        "details": "See {IERC721-safeTransferFrom}."
      },
      "safeTransferFrom(address,address,uint256,bytes)": {
        "details": "See {IERC721-safeTransferFrom}."
      },
      "setApprovalForAll(address,bool)": {
        "details": "See {IERC721-setApprovalForAll}."
      },
      "supportsInterface(bytes4)": {
        "details": "See {IERC165-supportsInterface}."
      },
      "symbol()": {
        "details": "See {IERC721Metadata-symbol}."
      },
      "tokenURI(uint256)": {
        "details": "See {IERC721Metadata-tokenURI}."
      },
      "transferFrom(address,address,uint256)": {
        "details": "See {IERC721-transferFrom}."
      }
    },
    "version": 1
  },
  "userdoc": {
    "kind": "user",
    "methods": {},
    "version": 1
  }
}