{
  "contractName": "CrowdfundingNFT",
  "abi": [
    {
      "inputs": [
        {
          "internalType": "address",
          "name": "_operator",
          "type": "address"
        }
      ],
      "stateMutability": "nonpayable",
      "type": "constructor"
    },
    {
      "anonymous": false,
      "inputs": [
        {
          "indexed": true,
          "internalType": "address",
          "name": "owner",
          "type": "address"
        },
        {
          "indexed": true,
          "internalType": "address",
          "name": "approved",
          "type": "address"
        },
        {
          "indexed": true,
          "internalType": "uint256",
          "name": "tokenId",
          "type": "uint256"
        }
      ],
      "name": "Approval",
      "type": "event"
    },
    {
      "anonymous": false,
      "inputs": [
        {
          "indexed": true,
          "internalType": "address",
          "name": "owner",
          "type": "address"
        },
        {
          "indexed": true,
          "internalType": "address",
          "name": "operator",
          "type": "address"
        },
        {
          "indexed": false,
          "internalType": "bool",
          "name": "approved",
          "type": "bool"
        }
      ],
      "name": "ApprovalForAll",
      "type": "event"
    },
    {
      "anonymous": false,
      "inputs": [
        {
          "indexed": true,
          "internalType": "address",
          "name": "from",
          "type": "address"
        },
        {
          "indexed": true,
          "internalType": "address",
          "name": "to",
          "type": "address"
        },
        {
          "indexed": true,
          "internalType": "uint256",
          "name": "tokenId",
          "type": "uint256"
        }
      ],
      "name": "Transfer",
      "type": "event"
    },
    {
      "inputs": [
        {
          "internalType": "uint256",
          "name": "",
          "type": "uint256"
        }
      ],
      "name": "allNFTs",
      "outputs": [
        {
          "internalType": "uint256",
          "name": "startingBlockTime",
          "type": "uint256"
        },
        {
          "internalType": "uint256",
          "name": "endingBlockTime",
          "type": "uint256"
        },
        {
          "internalType": "address",
          "name": "streamReceiver",
          "type": "address"
        },
        {
          "internalType": "uint256",
          "name": "streamAmount",
          "type": "uint256"
        },
        {
          "internalType": "uint256",
          "name": "streamRate",
          "type": "uint256"
        },
        {
          "internalType": "address",
          "name": "streamToken",
          "type": "address"
        },
        {
          "internalType": "uint256",
          "name": "securityAmount",
          "type": "uint256"
        },
        {
          "internalType": "address",
          "name": "minter",
          "type": "address"
        },
        {
          "internalType": "bool",
          "name": "isStopped",
          "type": "bool"
        },
        {
          "internalType": "uint256",
          "name": "originalStreamAmount",
          "type": "uint256"
        }
      ],
      "stateMutability": "view",
      "type": "function",
      "constant": true
    },
    {
      "inputs": [
        {
          "internalType": "address",
          "name": "to",
          "type": "address"
        },
        {
          "internalType": "uint256",
          "name": "tokenId",
          "type": "uint256"
        }
      ],
      "name": "approve",
      "outputs": [],
      "stateMutability": "nonpayable",
      "type": "function"
    },
    {
      "inputs": [
        {
          "internalType": "address",
          "name": "owner",
          "type": "address"
        }
      ],
      "name": "balanceOf",
      "outputs": [
        {
          "internalType": "uint256",
          "name": "",
          "type": "uint256"
        }
      ],
      "stateMutability": "view",
      "type": "function",
      "constant": true
    },
    {
      "inputs": [
        {
          "internalType": "uint256",
          "name": "tokenId",
          "type": "uint256"
        }
      ],
      "name": "getApproved",
      "outputs": [
        {
          "internalType": "address",
          "name": "",
          "type": "address"
        }
      ],
      "stateMutability": "view",
      "type": "function",
      "constant": true
    },
    {
      "inputs": [
        {
          "internalType": "address",
          "name": "owner",
          "type": "address"
        },
        {
          "internalType": "address",
          "name": "operator",
          "type": "address"
        }
      ],
      "name": "isApprovedForAll",
      "outputs": [
        {
          "internalType": "bool",
          "name": "",
          "type": "bool"
        }
      ],
      "stateMutability": "view",
      "type": "function",
      "constant": true
    },
    {
      "inputs": [],
      "name": "name",
      "outputs": [
        {
          "internalType": "string",
          "name": "",
          "type": "string"
        }
      ],
      "stateMutability": "view",
      "type": "function",
      "constant": true
    },
    {
      "inputs": [
        {
          "internalType": "uint256",
          "name": "tokenId",
          "type": "uint256"
        }
      ],
      "name": "ownerOf",
      "outputs": [
        {
          "internalType": "address",
          "name": "",
          "type": "address"
        }
      ],
      "stateMutability": "view",
      "type": "function",
      "constant": true
    },
    {
      "inputs": [
        {
          "internalType": "address",
          "name": "from",
          "type": "address"
        },
        {
          "internalType": "address",
          "name": "to",
          "type": "address"
        },
        {
          "internalType": "uint256",
          "name": "tokenId",
          "type": "uint256"
        }
      ],
      "name": "safeTransferFrom",
      "outputs": [],
      "stateMutability": "nonpayable",
      "type": "function"
    },
    {
      "inputs": [
        {
          "internalType": "address",
          "name": "from",
          "type": "address"
        },
        {
          "internalType": "address",
          "name": "to",
          "type": "address"
        },
        {
          "internalType": "uint256",
          "name": "tokenId",
          "type": "uint256"
        },
        {
          "internalType": "bytes",
          "name": "_data",
          "type": "bytes"
        }
      ],
      "name": "safeTransferFrom",
      "outputs": [],
      "stateMutability": "nonpayable",
      "type": "function"
    },
    {
      "inputs": [
        {
          "internalType": "address",
          "name": "operator",
          "type": "address"
        },
        {
          "internalType": "bool",
          "name": "approved",
          "type": "bool"
        }
      ],
      "name": "setApprovalForAll",
      "outputs": [],
      "stateMutability": "nonpayable",
      "type": "function"
    },
    {
      "inputs": [
        {
          "internalType": "bytes4",
          "name": "interfaceId",
          "type": "bytes4"
        }
      ],
      "name": "supportsInterface",
      "outputs": [
        {
          "internalType": "bool",
          "name": "",
          "type": "bool"
        }
      ],
      "stateMutability": "view",
      "type": "function",
      "constant": true
    },
    {
      "inputs": [],
      "name": "symbol",
      "outputs": [
        {
          "internalType": "string",
          "name": "",
          "type": "string"
        }
      ],
      "stateMutability": "view",
      "type": "function",
      "constant": true
    },
    {
      "inputs": [
        {
          "internalType": "uint256",
          "name": "tokenId",
          "type": "uint256"
        }
      ],
      "name": "tokenURI",
      "outputs": [
        {
          "internalType": "string",
          "name": "",
          "type": "string"
        }
      ],
      "stateMutability": "view",
      "type": "function",
      "constant": true
    },
    {
      "inputs": [
        {
          "internalType": "address",
          "name": "from",
          "type": "address"
        },
        {
          "internalType": "address",
          "name": "to",
          "type": "address"
        },
        {
          "internalType": "uint256",
          "name": "tokenId",
          "type": "uint256"
        }
      ],
      "name": "transferFrom",
      "outputs": [],
      "stateMutability": "nonpayable",
      "type": "function"
    },
    {
      "inputs": [],
      "name": "checkForUpdate",
      "outputs": [
        {
          "internalType": "uint256[]",
          "name": "",
          "type": "uint256[]"
        }
      ],
      "stateMutability": "view",
      "type": "function",
      "constant": true
    },
    {
      "inputs": [
        {
          "internalType": "uint256[]",
          "name": "_flowsToStop",
          "type": "uint256[]"
        }
      ],
      "name": "performUpdate",
      "outputs": [],
      "stateMutability": "nonpayable",
      "type": "function"
    },
    {
      "inputs": [
        {
          "internalType": "uint8",
          "name": "_isSupertoken",
          "type": "uint8"
        },
        {
          "internalType": "uint256",
          "name": "_streamAmount",
          "type": "uint256"
        },
        {
          "internalType": "uint256",
          "name": "_streamRate",
          "type": "uint256"
        },
        {
          "internalType": "address",
          "name": "_streamToken",
          "type": "address"
        },
        {
          "internalType": "address",
          "name": "_erc20TokenAddress",
          "type": "address"
        },
        {
          "internalType": "address",
          "name": "_projectOwner",
          "type": "address"
        }
      ],
      "name": "mint",
      "outputs": [
        {
          "internalType": "bool",
          "name": "",
          "type": "bool"
        }
      ],
      "stateMutability": "nonpayable",
      "type": "function"
    },
    {
      "inputs": [
        {
          "internalType": "uint256",
          "name": "_tokenId",
          "type": "uint256"
        }
      ],
      "name": "stopFlow",
      "outputs": [
        {
          "internalType": "bool",
          "name": "",
          "type": "bool"
        }
      ],
      "stateMutability": "nonpayable",
      "type": "function"
    },
    {
      "inputs": [
        {
          "internalType": "uint256",
          "name": "_tokenId",
          "type": "uint256"
        }
      ],
      "name": "withdraw",
      "outputs": [
        {
          "internalType": "bool",
          "name": "",
          "type": "bool"
        }
      ],
      "stateMutability": "nonpayable",
      "type": "function"
    }
  ],
  "bytecode": "0x608060405273f0d7d1d47109ba426b9d8a3cde1941327af1eea3600860006101000a81548173ffffffffffffffffffffffffffffffffffffffff021916908373ffffffffffffffffffffffffffffffffffffffff16021790555073eca8056809e7e8db04a8ff6e4e82cd889a46fe2f600960006101000a81548173ffffffffffffffffffffffffffffffffffffffff021916908373ffffffffffffffffffffffffffffffffffffffff160217905550348015620000bb57600080fd5b5060405162005242380380620052428339818101604052810190620000e1919062000345565b6040518060400160405280600f81526020017f43726f776466756e64696e674e465400000000000000000000000000000000008152506040518060400160405280600581526020017f43464e46540000000000000000000000000000000000000000000000000000008152508160009080519060200190620001659291906200027e565b5080600190805190602001906200017e9291906200027e565b505050600160068190555080600760006101000a81548173ffffffffffffffffffffffffffffffffffffffff021916908373ffffffffffffffffffffffffffffffffffffffff160217905550600064100000000064040000000064010000000060011717179050600860009054906101000a900473ffffffffffffffffffffffffffffffffffffffff1673ffffffffffffffffffffffffffffffffffffffff1663ad3915c8826040518263ffffffff1660e01b815260040162000242919062000382565b600060405180830381600087803b1580156200025d57600080fd5b505af115801562000272573d6000803e3d6000fd5b5050505050506200045c565b8280546200028c90620003dd565b90600052602060002090601f016020900481019282620002b05760008555620002fc565b82601f10620002cb57805160ff1916838001178555620002fc565b82800160010185558215620002fc579182015b82811115620002fb578251825591602001919060010190620002de565b5b5090506200030b91906200030f565b5090565b5b808211156200032a57600081600090555060010162000310565b5090565b6000815190506200033f8162000442565b92915050565b6000602082840312156200035857600080fd5b600062000368848285016200032e565b91505092915050565b6200037c81620003d3565b82525050565b600060208201905062000399600083018462000371565b92915050565b6000620003ac82620003b3565b9050919050565b600073ffffffffffffffffffffffffffffffffffffffff82169050919050565b6000819050919050565b60006002820490506001821680620003f657607f821691505b602082108114156200040d576200040c62000413565b5b50919050565b7f4e487b7100000000000000000000000000000000000000000000000000000000600052602260045260246000fd5b6200044d816200039f565b81146200045957600080fd5b50565b614dd6806200046c6000396000f3fe608060405234801561001057600080fd5b50600436106101215760003560e01c80636352211e116100ad578063bf162d6711610071578063bf162d671461032a578063c87b56dd14610363578063ca533dc114610393578063de6f030d146103b1578063e985e9c5146103e157610121565b80636352211e1461027457806370a08231146102a457806395d89b41146102d4578063a22cb465146102f2578063b88d4fde1461030e57610121565b806323b872dd116100f457806323b872dd146101c05780632e1a7d4d146101dc57806342842e0e1461020c5780634da756f914610228578063609dd3d81461025857610121565b806301ffc9a71461012657806306fdde0314610156578063081812fc14610174578063095ea7b3146101a4575b600080fd5b610140600480360381019061013b919061390e565b610411565b60405161014d9190614499565b60405180910390f35b61015e6104f3565b60405161016b919061452e565b60405180910390f35b61018e600480360381019061018991906139a1565b610585565b60405161019b9190614364565b60405180910390f35b6101be60048036038101906101b99190613868565b61060a565b005b6101da60048036038101906101d59190613762565b610722565b005b6101f660048036038101906101f191906139a1565b610782565b6040516102039190614499565b60405180910390f35b61022660048036038101906102219190613762565b610a62565b005b610242600480360381019061023d91906139a1565b610a82565b60405161024f9190614499565b60405180910390f35b610272600480360381019061026d91906138a4565b610f36565b005b61028e600480360381019061028991906139a1565b611304565b60405161029b9190614364565b60405180910390f35b6102be60048036038101906102b991906136fd565b6113b6565b6040516102cb91906147b0565b60405180910390f35b6102dc61146e565b6040516102e9919061452e565b60405180910390f35b61030c6004803603810190610307919061382c565b611500565b005b610328600480360381019061032391906137b1565b611516565b005b610344600480360381019061033f91906139a1565b611578565b60405161035a9a999897969594939291906147cb565b60405180910390f35b61037d600480360381019061037891906139a1565b611639565b60405161038a919061452e565b60405180910390f35b61039b6116e0565b6040516103a89190614477565b60405180910390f35b6103cb60048036038101906103c69190613a56565b61182d565b6040516103d89190614499565b60405180910390f35b6103fb60048036038101906103f69190613726565b611e62565b6040516104089190614499565b60405180910390f35b60007f80ac58cd000000000000000000000000000000000000000000000000000000007bffffffffffffffffffffffffffffffffffffffffffffffffffffffff1916827bffffffffffffffffffffffffffffffffffffffffffffffffffffffff191614806104dc57507f5b5e139f000000000000000000000000000000000000000000000000000000007bffffffffffffffffffffffffffffffffffffffffffffffffffffffff1916827bffffffffffffffffffffffffffffffffffffffffffffffffffffffff1916145b806104ec57506104eb82611ef6565b5b9050919050565b60606000805461050290614b9d565b80601f016020809104026020016040519081016040528092919081815260200182805461052e90614b9d565b801561057b5780601f106105505761010080835404028352916020019161057b565b820191906000526020600020905b81548152906001019060200180831161055e57829003601f168201915b5050505050905090565b600061059082611f60565b6105cf576040517f08c379a00000000000000000000000000000000000000000000000000000000081526004016105c6906146f0565b60405180910390fd5b6004600083815260200190815260200160002060009054906101000a900473ffffffffffffffffffffffffffffffffffffffff169050919050565b600061061582611304565b90508073ffffffffffffffffffffffffffffffffffffffff168373ffffffffffffffffffffffffffffffffffffffff161415610686576040517f08c379a000000000000000000000000000000000000000000000000000000000815260040161067d90614750565b60405180910390fd5b8073ffffffffffffffffffffffffffffffffffffffff166106a5611fcc565b73ffffffffffffffffffffffffffffffffffffffff1614806106d457506106d3816106ce611fcc565b611e62565b5b610713576040517f08c379a000000000000000000000000000000000000000000000000000000000815260040161070a90614610565b60405180910390fd5b61071d8383611fd4565b505050565b61073361072d611fcc565b8261208d565b610772576040517f08c379a000000000000000000000000000000000000000000000000000000000815260040161076990614770565b60405180910390fd5b61077d83838361216b565b505050565b600060011515600a600084815260200190815260200160002060070160149054906101000a900460ff161515146107ee576040517f08c379a00000000000000000000000000000000000000000000000000000000081526004016107e590614570565b60405180910390fd5b3373ffffffffffffffffffffffffffffffffffffffff16600a600084815260200190815260200160002060070160009054906101000a900473ffffffffffffffffffffffffffffffffffffffff1673ffffffffffffffffffffffffffffffffffffffff1614806108e15750600760009054906101000a900473ffffffffffffffffffffffffffffffffffffffff1673ffffffffffffffffffffffffffffffffffffffff16600a600084815260200190815260200160002060070160009054906101000a900473ffffffffffffffffffffffffffffffffffffffff1673ffffffffffffffffffffffffffffffffffffffff16145b610920576040517f08c379a000000000000000000000000000000000000000000000000000000000815260040161091790614690565b60405180910390fd5b6000600a600084815260200190815260200160002060060154600a60008581526020019081526020016000206003015461095a9190614970565b90506000600a6000858152602001908152602001600020600301819055506000600a600085815260200190815260200160002060060181905550600a600084815260200190815260200160002060050160009054906101000a900473ffffffffffffffffffffffffffffffffffffffff1673ffffffffffffffffffffffffffffffffffffffff1663a9059cbb33836040518363ffffffff1660e01b8152600401610a0592919061444e565b602060405180830381600087803b158015610a1f57600080fd5b505af1158015610a33573d6000803e3d6000fd5b505050506040513d601f19601f82011682018060405250810190610a5791906138e5565b506001915050919050565b610a7d83838360405180602001604052806000815250611516565b505050565b6000801515600a600084815260200190815260200160002060070160149054906101000a900460ff16151514610aed576040517f08c379a0000000000000000000000000000000000000000000000000000000008152600401610ae490614670565b60405180910390fd5b3373ffffffffffffffffffffffffffffffffffffffff16600a600084815260200190815260200160002060070160009054906101000a900473ffffffffffffffffffffffffffffffffffffffff1673ffffffffffffffffffffffffffffffffffffffff161480610be05750600760009054906101000a900473ffffffffffffffffffffffffffffffffffffffff1673ffffffffffffffffffffffffffffffffffffffff16600a600084815260200190815260200160002060070160009054906101000a900473ffffffffffffffffffffffffffffffffffffffff1673ffffffffffffffffffffffffffffffffffffffff16145b610c1f576040517f08c379a0000000000000000000000000000000000000000000000000000000008152600401610c16906146b0565b60405180910390fd5b6001600a600084815260200190815260200160002060070160146101000a81548160ff02191690831515021790555060004290506000600a600085815260200190815260200160002060040154600a60008681526020019081526020016000206000015483610c8e9190614a51565b610c9891906149f7565b90506000600a6000868152602001908152602001600020600301548211610cde5781600a600087815260200190815260200160002060030154610cdb9190614a51565b90505b80600a600087815260200190815260200160002060030181905550600860009054906101000a900473ffffffffffffffffffffffffffffffffffffffff1673ffffffffffffffffffffffffffffffffffffffff166339255d5b600960009054906101000a900473ffffffffffffffffffffffffffffffffffffffff1663b4b333c660e01b600a60008a815260200190815260200160002060050160009054906101000a900473ffffffffffffffffffffffffffffffffffffffff1630600a60008c815260200190815260200160002060020160009054906101000a900473ffffffffffffffffffffffffffffffffffffffff16600067ffffffffffffffff811115610e12577f4e487b7100000000000000000000000000000000000000000000000000000000600052604160045260246000fd5b6040519080825280601f01601f191660200182016040528015610e445781602001600182028036833780820191505090505b50604051602401610e58949392919061437f565b604051602081830303815290604052907bffffffffffffffffffffffffffffffffffffffffffffffffffffffff19166020820180517bffffffffffffffffffffffffffffffffffffffffffffffffffffffff83818316178352505050506040518363ffffffff1660e01b8152600401610ed29291906144b4565b600060405180830381600087803b158015610eec57600080fd5b505af1158015610f00573d6000803e3d6000fd5b505050506040513d6000823e3d601f19601f82011682018060405250810190610f299190613960565b5060019350505050919050565b60005b815181101561130057610f8b828281518110610f7e577f4e487b7100000000000000000000000000000000000000000000000000000000600052603260045260246000fd5b6020026020010151610a82565b506000600a6000848481518110610fcb577f4e487b7100000000000000000000000000000000000000000000000000000000600052603260045260246000fd5b6020026020010151815260200190815260200160002060040154600a6000858581518110611022577f4e487b7100000000000000000000000000000000000000000000000000000000600052603260045260246000fd5b6020026020010151815260200190815260200160002060010154426110479190614a51565b61105191906149f7565b9050600081600a6000868681518110611093577f4e487b7100000000000000000000000000000000000000000000000000000000600052603260045260246000fd5b60200260200101518152602001908152602001600020600601546110b79190614a51565b9050600a60008585815181106110f6577f4e487b7100000000000000000000000000000000000000000000000000000000600052603260045260246000fd5b6020026020010151815260200190815260200160002060050160009054906101000a900473ffffffffffffffffffffffffffffffffffffffff1673ffffffffffffffffffffffffffffffffffffffff1663a9059cbb600a6000878781518110611188577f4e487b7100000000000000000000000000000000000000000000000000000000600052603260045260246000fd5b6020026020010151815260200190815260200160002060070160009054906101000a900473ffffffffffffffffffffffffffffffffffffffff16836040518363ffffffff1660e01b81526004016111e092919061444e565b602060405180830381600087803b1580156111fa57600080fd5b505af115801561120e573d6000803e3d6000fd5b505050506040513d601f19601f8201168201806040525081019061123291906138e5565b506000600a6000868681518110611272577f4e487b7100000000000000000000000000000000000000000000000000000000600052603260045260246000fd5b60200260200101518152602001908152602001600020600401819055506000600a60008686815181106112ce577f4e487b7100000000000000000000000000000000000000000000000000000000600052603260045260246000fd5b6020026020010151815260200190815260200160002060060181905550505080806112f890614bcf565b915050610f39565b5050565b6000806002600084815260200190815260200160002060009054906101000a900473ffffffffffffffffffffffffffffffffffffffff169050600073ffffffffffffffffffffffffffffffffffffffff168173ffffffffffffffffffffffffffffffffffffffff1614156113ad576040517f08c379a00000000000000000000000000000000000000000000000000000000081526004016113a490614650565b60405180910390fd5b80915050919050565b60008073ffffffffffffffffffffffffffffffffffffffff168273ffffffffffffffffffffffffffffffffffffffff161415611427576040517f08c379a000000000000000000000000000000000000000000000000000000000815260040161141e90614630565b60405180910390fd5b600360008373ffffffffffffffffffffffffffffffffffffffff1673ffffffffffffffffffffffffffffffffffffffff168152602001908152602001600020549050919050565b60606001805461147d90614b9d565b80601f01602080910402602001604051908101604052809291908181526020018280546114a990614b9d565b80156114f65780601f106114cb576101008083540402835291602001916114f6565b820191906000526020600020905b8154815290600101906020018083116114d957829003601f168201915b5050505050905090565b61151261150b611fcc565b83836123c7565b5050565b611527611521611fcc565b8361208d565b611566576040517f08c379a000000000000000000000000000000000000000000000000000000000815260040161155d90614770565b60405180910390fd5b61157284848484612534565b50505050565b600a6020528060005260406000206000915090508060000154908060010154908060020160009054906101000a900473ffffffffffffffffffffffffffffffffffffffff16908060030154908060040154908060050160009054906101000a900473ffffffffffffffffffffffffffffffffffffffff16908060060154908060070160009054906101000a900473ffffffffffffffffffffffffffffffffffffffff16908060070160149054906101000a900460ff1690806008015490508a565b606061164482611f60565b611683576040517f08c379a000000000000000000000000000000000000000000000000000000000815260040161167a90614730565b60405180910390fd5b600061168d612590565b905060008151116116ad57604051806020016040528060008152506116d8565b806116b7846125a7565b6040516020016116c8929190614340565b6040516020818303038152906040525b915050919050565b6060600060065467ffffffffffffffff811115611726577f4e487b7100000000000000000000000000000000000000000000000000000000600052604160045260246000fd5b6040519080825280602002602001820160405280156117545781602001602082028036833780820191505090505b509050600080600190505b60065481101561182457600a60008281526020019081526020016000206001015442101580156117b6575060001515600a600083815260200190815260200160002060070160149054906101000a900460ff161515145b1561181157808383815181106117f5577f4e487b7100000000000000000000000000000000000000000000000000000000600052603260045260246000fd5b60200260200101818152505060018261180e9190614970565b91505b808061181c90614bcf565b91505061175f565b50819250505090565b6000804290506000610e108761184391906149f7565b905060018960ff1614156119c257808861185d9190614970565b8673ffffffffffffffffffffffffffffffffffffffff166370a08231336040518263ffffffff1660e01b81526004016118969190614364565b60206040518083038186803b1580156118ae57600080fd5b505afa1580156118c2573d6000803e3d6000fd5b505050506040513d601f19601f820116820180604052508101906118e691906139ca565b11611926576040517f08c379a000000000000000000000000000000000000000000000000000000000815260040161191d90614790565b60405180910390fd5b8573ffffffffffffffffffffffffffffffffffffffff166323b872dd3330848c6119509190614970565b6040518463ffffffff1660e01b815260040161196e939291906143cb565b602060405180830381600087803b15801561198857600080fd5b505af115801561199c573d6000803e3d6000fd5b505050506040513d601f19601f820116820180604052508101906119c091906138e5565b505b60028960ff161415611c4e5780886119da9190614970565b8673ffffffffffffffffffffffffffffffffffffffff166370a08231336040518263ffffffff1660e01b8152600401611a139190614364565b60206040518083038186803b158015611a2b57600080fd5b505afa158015611a3f573d6000803e3d6000fd5b505050506040513d601f19601f82011682018060405250810190611a6391906139ca565b11611aa3576040517f08c379a0000000000000000000000000000000000000000000000000000000008152600401611a9a90614790565b60405180910390fd5b8473ffffffffffffffffffffffffffffffffffffffff166323b872dd3330848c611acd9190614970565b6040518463ffffffff1660e01b8152600401611aeb939291906143cb565b602060405180830381600087803b158015611b0557600080fd5b505af1158015611b19573d6000803e3d6000fd5b505050506040513d601f19601f82011682018060405250810190611b3d91906138e5565b508473ffffffffffffffffffffffffffffffffffffffff1663095ea7b387838b611b679190614970565b6040518363ffffffff1660e01b8152600401611b8492919061444e565b602060405180830381600087803b158015611b9e57600080fd5b505af1158015611bb2573d6000803e3d6000fd5b505050506040513d601f19601f82011682018060405250810190611bd691906138e5565b508573ffffffffffffffffffffffffffffffffffffffff166345977d03828a611bff9190614970565b6040518263ffffffff1660e01b8152600401611c1b91906147b0565b600060405180830381600087803b158015611c3557600080fd5b505af1158015611c49573d6000803e3d6000fd5b505050505b604051806101400160405280838152602001600081526020018573ffffffffffffffffffffffffffffffffffffffff1681526020018981526020018881526020018773ffffffffffffffffffffffffffffffffffffffff1681526020018281526020013373ffffffffffffffffffffffffffffffffffffffff16815260200160001515815260200189815250600a60006006548152602001908152602001600020600082015181600001556020820151816001015560408201518160020160006101000a81548173ffffffffffffffffffffffffffffffffffffffff021916908373ffffffffffffffffffffffffffffffffffffffff160217905550606082015181600301556080820151816004015560a08201518160050160006101000a81548173ffffffffffffffffffffffffffffffffffffffff021916908373ffffffffffffffffffffffffffffffffffffffff16021790555060c0820151816006015560e08201518160070160006101000a81548173ffffffffffffffffffffffffffffffffffffffff021916908373ffffffffffffffffffffffffffffffffffffffff1602179055506101008201518160070160146101000a81548160ff0219169083151502179055506101208201518160080155905050611e3184600654612754565b611e3c600654612922565b506001600654611e4c9190614970565b6006819055506001925050509695505050505050565b6000600560008473ffffffffffffffffffffffffffffffffffffffff1673ffffffffffffffffffffffffffffffffffffffff16815260200190815260200160002060008373ffffffffffffffffffffffffffffffffffffffff1673ffffffffffffffffffffffffffffffffffffffff16815260200190815260200160002060009054906101000a900460ff16905092915050565b60007f01ffc9a7000000000000000000000000000000000000000000000000000000007bffffffffffffffffffffffffffffffffffffffffffffffffffffffff1916827bffffffffffffffffffffffffffffffffffffffffffffffffffffffff1916149050919050565b60008073ffffffffffffffffffffffffffffffffffffffff166002600084815260200190815260200160002060009054906101000a900473ffffffffffffffffffffffffffffffffffffffff1673ffffffffffffffffffffffffffffffffffffffff1614159050919050565b600033905090565b816004600083815260200190815260200160002060006101000a81548173ffffffffffffffffffffffffffffffffffffffff021916908373ffffffffffffffffffffffffffffffffffffffff160217905550808273ffffffffffffffffffffffffffffffffffffffff1661204783611304565b73ffffffffffffffffffffffffffffffffffffffff167f8c5be1e5ebec7d5bd14f71427d1e84f3dd0314c0f7b2291e5b200ac8c7c3b92560405160405180910390a45050565b600061209882611f60565b6120d7576040517f08c379a00000000000000000000000000000000000000000000000000000000081526004016120ce906145f0565b60405180910390fd5b60006120e283611304565b90508073ffffffffffffffffffffffffffffffffffffffff168473ffffffffffffffffffffffffffffffffffffffff16148061215157508373ffffffffffffffffffffffffffffffffffffffff1661213984610585565b73ffffffffffffffffffffffffffffffffffffffff16145b8061216257506121618185611e62565b5b91505092915050565b8273ffffffffffffffffffffffffffffffffffffffff1661218b82611304565b73ffffffffffffffffffffffffffffffffffffffff16146121e1576040517f08c379a00000000000000000000000000000000000000000000000000000000081526004016121d890614710565b60405180910390fd5b600073ffffffffffffffffffffffffffffffffffffffff168273ffffffffffffffffffffffffffffffffffffffff161415612251576040517f08c379a0000000000000000000000000000000000000000000000000000000008152600401612248906145b0565b60405180910390fd5b61225c838383612c21565b612267600082611fd4565b6001600360008573ffffffffffffffffffffffffffffffffffffffff1673ffffffffffffffffffffffffffffffffffffffff16815260200190815260200160002060008282546122b79190614a51565b925050819055506001600360008473ffffffffffffffffffffffffffffffffffffffff1673ffffffffffffffffffffffffffffffffffffffff168152602001908152602001600020600082825461230e9190614970565b92505081905550816002600083815260200190815260200160002060006101000a81548173ffffffffffffffffffffffffffffffffffffffff021916908373ffffffffffffffffffffffffffffffffffffffff160217905550808273ffffffffffffffffffffffffffffffffffffffff168473ffffffffffffffffffffffffffffffffffffffff167fddf252ad1be2c89b69c2b068fc378daa952ba7f163c4a11628f55a4df523b3ef60405160405180910390a4505050565b8173ffffffffffffffffffffffffffffffffffffffff168373ffffffffffffffffffffffffffffffffffffffff161415612436576040517f08c379a000000000000000000000000000000000000000000000000000000000815260040161242d906145d0565b60405180910390fd5b80600560008573ffffffffffffffffffffffffffffffffffffffff1673ffffffffffffffffffffffffffffffffffffffff16815260200190815260200160002060008473ffffffffffffffffffffffffffffffffffffffff1673ffffffffffffffffffffffffffffffffffffffff16815260200190815260200160002060006101000a81548160ff0219169083151502179055508173ffffffffffffffffffffffffffffffffffffffff168373ffffffffffffffffffffffffffffffffffffffff167f17307eab39ab6107e8899845ad3d59bd9653f200f220920489ca2b5937696c31836040516125279190614499565b60405180910390a3505050565b61253f84848461216b565b61254b84848484613330565b61258a576040517f08c379a000000000000000000000000000000000000000000000000000000000815260040161258190614550565b60405180910390fd5b50505050565b606060405180602001604052806000815250905090565b606060008214156125ef576040518060400160405280600181526020017f3000000000000000000000000000000000000000000000000000000000000000815250905061274f565b600082905060005b6000821461262157808061260a90614bcf565b915050600a8261261a91906149c6565b91506125f7565b60008167ffffffffffffffff811115612663577f4e487b7100000000000000000000000000000000000000000000000000000000600052604160045260246000fd5b6040519080825280601f01601f1916602001820160405280156126955781602001600182028036833780820191505090505b5090505b60008514612748576001826126ae9190614a51565b9150600a856126bd9190614c18565b60306126c99190614970565b60f81b818381518110612705577f4e487b7100000000000000000000000000000000000000000000000000000000600052603260045260246000fd5b60200101907effffffffffffffffffffffffffffffffffffffffffffffffffffffffffffff1916908160001a905350600a8561274191906149c6565b9450612699565b8093505050505b919050565b600073ffffffffffffffffffffffffffffffffffffffff168273ffffffffffffffffffffffffffffffffffffffff1614156127c4576040517f08c379a00000000000000000000000000000000000000000000000000000000081526004016127bb906146d0565b60405180910390fd5b6127cd81611f60565b1561280d576040517f08c379a000000000000000000000000000000000000000000000000000000000815260040161280490614590565b60405180910390fd5b61281960008383612c21565b6001600360008473ffffffffffffffffffffffffffffffffffffffff1673ffffffffffffffffffffffffffffffffffffffff16815260200190815260200160002060008282546128699190614970565b92505081905550816002600083815260200190815260200160002060006101000a81548173ffffffffffffffffffffffffffffffffffffffff021916908373ffffffffffffffffffffffffffffffffffffffff160217905550808273ffffffffffffffffffffffffffffffffffffffff16600073ffffffffffffffffffffffffffffffffffffffff167fddf252ad1be2c89b69c2b068fc378daa952ba7f163c4a11628f55a4df523b3ef60405160405180910390a45050565b600080600a600084815260200190815260200160002060040154600a60008581526020019081526020016000206003015461295d91906149c6565b9050600081600a6000868152602001908152602001600020600001546129839190614970565b905080600a6000868152602001908152602001600020600101819055506000600a600086815260200190815260200160002060070160146101000a81548160ff021916908315150217905550600860009054906101000a900473ffffffffffffffffffffffffffffffffffffffff1673ffffffffffffffffffffffffffffffffffffffff166339255d5b600960009054906101000a900473ffffffffffffffffffffffffffffffffffffffff166362fc305e60e01b600a600089815260200190815260200160002060050160009054906101000a900473ffffffffffffffffffffffffffffffffffffffff16600a60008a815260200190815260200160002060020160009054906101000a900473ffffffffffffffffffffffffffffffffffffffff16600a60008b815260200190815260200160002060040154600067ffffffffffffffff811115612afe577f4e487b7100000000000000000000000000000000000000000000000000000000600052604160045260246000fd5b6040519080825280601f01601f191660200182016040528015612b305781602001600182028036833780820191505090505b50604051602401612b449493929190614402565b604051602081830303815290604052907bffffffffffffffffffffffffffffffffffffffffffffffffffffffff19166020820180517bffffffffffffffffffffffffffffffffffffffffffffffffffffffff83818316178352505050506040518363ffffffff1660e01b8152600401612bbe9291906144b4565b600060405180830381600087803b158015612bd857600080fd5b505af1158015612bec573d6000803e3d6000fd5b505050506040513d6000823e3d601f19601f82011682018060405250810190612c159190613960565b50600192505050919050565b600073ffffffffffffffffffffffffffffffffffffffff168373ffffffffffffffffffffffffffffffffffffffff161461332b576000600960009054906101000a900473ffffffffffffffffffffffffffffffffffffffff1673ffffffffffffffffffffffffffffffffffffffff1663e6a1e888600a600085815260200190815260200160002060050160009054906101000a900473ffffffffffffffffffffffffffffffffffffffff1630600a600087815260200190815260200160002060020160009054906101000a900473ffffffffffffffffffffffffffffffffffffffff166040518463ffffffff1660e01b8152600401612d22939291906144f7565b60806040518083038186803b158015612d3a57600080fd5b505afa158015612d4e573d6000803e3d6000fd5b505050506040513d601f19601f82011682018060405250810190612d7291906139f3565b5050915050600081600b0b131561305d57612d8c82610a82565b5082600a600084815260200190815260200160002060020160006101000a81548173ffffffffffffffffffffffffffffffffffffffff021916908373ffffffffffffffffffffffffffffffffffffffff1602179055506000600a600084815260200190815260200160002060070160146101000a81548160ff021916908315150217905550600860009054906101000a900473ffffffffffffffffffffffffffffffffffffffff1673ffffffffffffffffffffffffffffffffffffffff166339255d5b600960009054906101000a900473ffffffffffffffffffffffffffffffffffffffff166362fc305e60e01b600a600087815260200190815260200160002060050160009054906101000a900473ffffffffffffffffffffffffffffffffffffffff16600a600088815260200190815260200160002060020160009054906101000a900473ffffffffffffffffffffffffffffffffffffffff16600a600089815260200190815260200160002060040154600067ffffffffffffffff811115612f40577f4e487b7100000000000000000000000000000000000000000000000000000000600052604160045260246000fd5b6040519080825280601f01601f191660200182016040528015612f725781602001600182028036833780820191505090505b50604051602401612f869493929190614402565b604051602081830303815290604052907bffffffffffffffffffffffffffffffffffffffffffffffffffffffff19166020820180517bffffffffffffffffffffffffffffffffffffffffffffffffffffffff83818316178352505050506040518363ffffffff1660e01b81526004016130009291906144b4565b600060405180830381600087803b15801561301a57600080fd5b505af115801561302e573d6000803e3d6000fd5b505050506040513d6000823e3d601f19601f820116820180604052508101906130579190613960565b50613329565b82600a600084815260200190815260200160002060020160006101000a81548173ffffffffffffffffffffffffffffffffffffffff021916908373ffffffffffffffffffffffffffffffffffffffff1602179055506000600a600084815260200190815260200160002060070160146101000a81548160ff021916908315150217905550600860009054906101000a900473ffffffffffffffffffffffffffffffffffffffff1673ffffffffffffffffffffffffffffffffffffffff166339255d5b600960009054906101000a900473ffffffffffffffffffffffffffffffffffffffff166362fc305e60e01b600a600087815260200190815260200160002060050160009054906101000a900473ffffffffffffffffffffffffffffffffffffffff16600a600088815260200190815260200160002060020160009054906101000a900473ffffffffffffffffffffffffffffffffffffffff16600a600089815260200190815260200160002060040154600067ffffffffffffffff811115613210577f4e487b7100000000000000000000000000000000000000000000000000000000600052604160045260246000fd5b6040519080825280601f01601f1916602001820160405280156132425781602001600182028036833780820191505090505b506040516024016132569493929190614402565b604051602081830303815290604052907bffffffffffffffffffffffffffffffffffffffffffffffffffffffff19166020820180517bffffffffffffffffffffffffffffffffffffffffffffffffffffffff83818316178352505050506040518363ffffffff1660e01b81526004016132d09291906144b4565b600060405180830381600087803b1580156132ea57600080fd5b505af11580156132fe573d6000803e3d6000fd5b505050506040513d6000823e3d601f19601f820116820180604052508101906133279190613960565b505b505b505050565b60006133518473ffffffffffffffffffffffffffffffffffffffff166134c7565b156134ba578373ffffffffffffffffffffffffffffffffffffffff1663150b7a0261337a611fcc565b8786866040518563ffffffff1660e01b815260040161339c9493929190614402565b602060405180830381600087803b1580156133b657600080fd5b505af19250505080156133e757506040513d601f19601f820116820180604052508101906133e49190613937565b60015b61346a573d8060008114613417576040519150601f19603f3d011682016040523d82523d6000602084013e61341c565b606091505b50600081511415613462576040517f08c379a000000000000000000000000000000000000000000000000000000000815260040161345990614550565b60405180910390fd5b805181602001fd5b63150b7a0260e01b7bffffffffffffffffffffffffffffffffffffffffffffffffffffffff1916817bffffffffffffffffffffffffffffffffffffffffffffffffffffffff1916149150506134bf565b600190505b949350505050565b600080823b905060008111915050919050565b60006134ed6134e884614898565b614867565b9050808382526020820190508285602086028201111561350c57600080fd5b60005b8581101561353c578161352288826136be565b84526020840193506020830192505060018101905061350f565b5050509392505050565b6000613559613554846148c4565b614867565b90508281526020810184848401111561357157600080fd5b61357c848285614b5b565b509392505050565b6000613597613592846148c4565b614867565b9050828152602081018484840111156135af57600080fd5b6135ba848285614b6a565b509392505050565b6000813590506135d181614d16565b92915050565b600082601f8301126135e857600080fd5b81356135f88482602086016134da565b91505092915050565b60008135905061361081614d2d565b92915050565b60008151905061362581614d2d565b92915050565b60008135905061363a81614d44565b92915050565b60008151905061364f81614d44565b92915050565b600082601f83011261366657600080fd5b8135613676848260208601613546565b91505092915050565b600082601f83011261369057600080fd5b81516136a0848260208601613584565b91505092915050565b6000815190506136b881614d5b565b92915050565b6000813590506136cd81614d72565b92915050565b6000815190506136e281614d72565b92915050565b6000813590506136f781614d89565b92915050565b60006020828403121561370f57600080fd5b600061371d848285016135c2565b91505092915050565b6000806040838503121561373957600080fd5b6000613747858286016135c2565b9250506020613758858286016135c2565b9150509250929050565b60008060006060848603121561377757600080fd5b6000613785868287016135c2565b9350506020613796868287016135c2565b92505060406137a7868287016136be565b9150509250925092565b600080600080608085870312156137c757600080fd5b60006137d5878288016135c2565b94505060206137e6878288016135c2565b93505060406137f7878288016136be565b925050606085013567ffffffffffffffff81111561381457600080fd5b61382087828801613655565b91505092959194509250565b6000806040838503121561383f57600080fd5b600061384d858286016135c2565b925050602061385e85828601613601565b9150509250929050565b6000806040838503121561387b57600080fd5b6000613889858286016135c2565b925050602061389a858286016136be565b9150509250929050565b6000602082840312156138b657600080fd5b600082013567ffffffffffffffff8111156138d057600080fd5b6138dc848285016135d7565b91505092915050565b6000602082840312156138f757600080fd5b600061390584828501613616565b91505092915050565b60006020828403121561392057600080fd5b600061392e8482850161362b565b91505092915050565b60006020828403121561394957600080fd5b600061395784828501613640565b91505092915050565b60006020828403121561397257600080fd5b600082015167ffffffffffffffff81111561398c57600080fd5b6139988482850161367f565b91505092915050565b6000602082840312156139b357600080fd5b60006139c1848285016136be565b91505092915050565b6000602082840312156139dc57600080fd5b60006139ea848285016136d3565b91505092915050565b60008060008060808587031215613a0957600080fd5b6000613a17878288016136d3565b9450506020613a28878288016136a9565b9350506040613a39878288016136d3565b9250506060613a4a878288016136d3565b91505092959194509250565b60008060008060008060c08789031215613a6f57600080fd5b6000613a7d89828a016136e8565b9650506020613a8e89828a016136be565b9550506040613a9f89828a016136be565b9450506060613ab089828a016135c2565b9350506080613ac189828a016135c2565b92505060a0613ad289828a016135c2565b9150509295509295509295565b6000613aeb8383614322565b60208301905092915050565b613b0081614a85565b82525050565b6000613b1182614904565b613b1b8185614932565b9350613b26836148f4565b8060005b83811015613b57578151613b3e8882613adf565b9750613b4983614925565b925050600181019050613b2a565b5085935050505092915050565b613b6d81614a97565b82525050565b6000613b7e8261490f565b613b888185614943565b9350613b98818560208601614b6a565b613ba181614d05565b840191505092915050565b613bb581614b13565b82525050565b613bc481614b37565b82525050565b6000613bd58261491a565b613bdf8185614954565b9350613bef818560208601614b6a565b613bf881614d05565b840191505092915050565b6000613c0e8261491a565b613c188185614965565b9350613c28818560208601614b6a565b80840191505092915050565b6000613c41603283614954565b91507f4552433732313a207472616e7366657220746f206e6f6e20455243373231526560008301527f63656976657220696d706c656d656e74657200000000000000000000000000006020830152604082019050919050565b6000613ca7601983614954565b91507f53747265616d206973206e6f742073746f7070656420796574000000000000006000830152602082019050919050565b6000613ce7601c83614954565b91507f4552433732313a20746f6b656e20616c7265616479206d696e746564000000006000830152602082019050919050565b6000613d27600283614943565b91507f30780000000000000000000000000000000000000000000000000000000000006000830152602082019050919050565b6000613d67602483614954565b91507f4552433732313a207472616e7366657220746f20746865207a65726f2061646460008301527f72657373000000000000000000000000000000000000000000000000000000006020830152604082019050919050565b6000613dcd601983614954565b91507f4552433732313a20617070726f766520746f2063616c6c6572000000000000006000830152602082019050919050565b6000613e0d602c83614954565b91507f4552433732313a206f70657261746f7220717565727920666f72206e6f6e657860008301527f697374656e7420746f6b656e00000000000000000000000000000000000000006020830152604082019050919050565b6000613e73603883614954565b91507f4552433732313a20617070726f76652063616c6c6572206973206e6f74206f7760008301527f6e6572206e6f7220617070726f76656420666f7220616c6c00000000000000006020830152604082019050919050565b6000613ed9602a83614954565b91507f4552433732313a2062616c616e636520717565727920666f7220746865207a6560008301527f726f2061646472657373000000000000000000000000000000000000000000006020830152604082019050919050565b6000613f3f602983614954565b91507f4552433732313a206f776e657220717565727920666f72206e6f6e657869737460008301527f656e7420746f6b656e00000000000000000000000000000000000000000000006020830152604082019050919050565b6000613fa5601983614954565b91507f53747265616d20697320616c72656164792073746f70706564000000000000006000830152602082019050919050565b6000613fe5601f83614954565b91507f596f7520617265206e6f7420616c6c6f77656420746f207769746864726177006000830152602082019050919050565b6000614025602683614954565b91507f596f7520617265206e6f7420616c6c6f77656420746f2073746f70207468652060008301527f73747265616d00000000000000000000000000000000000000000000000000006020830152604082019050919050565b600061408b602083614954565b91507f4552433732313a206d696e7420746f20746865207a65726f20616464726573736000830152602082019050919050565b60006140cb602c83614954565b91507f4552433732313a20617070726f76656420717565727920666f72206e6f6e657860008301527f697374656e7420746f6b656e00000000000000000000000000000000000000006020830152604082019050919050565b6000614131602983614954565b91507f4552433732313a207472616e73666572206f6620746f6b656e2074686174206960008301527f73206e6f74206f776e00000000000000000000000000000000000000000000006020830152604082019050919050565b6000614197602f83614954565b91507f4552433732314d657461646174613a2055524920717565727920666f72206e6f60008301527f6e6578697374656e7420746f6b656e00000000000000000000000000000000006020830152604082019050919050565b60006141fd602183614954565b91507f4552433732313a20617070726f76616c20746f2063757272656e74206f776e6560008301527f72000000000000000000000000000000000000000000000000000000000000006020830152604082019050919050565b6000614263603183614954565b91507f4552433732313a207472616e736665722063616c6c6572206973206e6f74206f60008301527f776e6572206e6f7220617070726f7665640000000000000000000000000000006020830152604082019050919050565b60006142c9603e83614954565b91507f4e6f7420656e6f7567682066756e647320696e20796f75722077616c6c65742060008301527f746f2070617920666f722073747265616d20616e6420736563757269747900006020830152604082019050919050565b61432b81614afc565b82525050565b61433a81614afc565b82525050565b600061434c8285613c03565b91506143588284613c03565b91508190509392505050565b60006020820190506143796000830184613af7565b92915050565b60006080820190506143946000830187613af7565b6143a16020830186613af7565b6143ae6040830185613af7565b81810360608301526143c08184613b73565b905095945050505050565b60006060820190506143e06000830186613af7565b6143ed6020830185613af7565b6143fa6040830184614331565b949350505050565b60006080820190506144176000830187613af7565b6144246020830186613af7565b6144316040830185614331565b81810360608301526144438184613b73565b905095945050505050565b60006040820190506144636000830185613af7565b6144706020830184614331565b9392505050565b600060208201905081810360008301526144918184613b06565b905092915050565b60006020820190506144ae6000830184613b64565b92915050565b60006060820190506144c96000830185613bac565b81810360208301526144db8184613b73565b905081810360408301526144ee81613d1a565b90509392505050565b600060608201905061450c6000830186613bbb565b6145196020830185613af7565b6145266040830184613af7565b949350505050565b600060208201905081810360008301526145488184613bca565b905092915050565b6000602082019050818103600083015261456981613c34565b9050919050565b6000602082019050818103600083015261458981613c9a565b9050919050565b600060208201905081810360008301526145a981613cda565b9050919050565b600060208201905081810360008301526145c981613d5a565b9050919050565b600060208201905081810360008301526145e981613dc0565b9050919050565b6000602082019050818103600083015261460981613e00565b9050919050565b6000602082019050818103600083015261462981613e66565b9050919050565b6000602082019050818103600083015261464981613ecc565b9050919050565b6000602082019050818103600083015261466981613f32565b9050919050565b6000602082019050818103600083015261468981613f98565b9050919050565b600060208201905081810360008301526146a981613fd8565b9050919050565b600060208201905081810360008301526146c981614018565b9050919050565b600060208201905081810360008301526146e98161407e565b9050919050565b60006020820190508181036000830152614709816140be565b9050919050565b6000602082019050818103600083015261472981614124565b9050919050565b600060208201905081810360008301526147498161418a565b9050919050565b60006020820190508181036000830152614769816141f0565b9050919050565b6000602082019050818103600083015261478981614256565b9050919050565b600060208201905081810360008301526147a9816142bc565b9050919050565b60006020820190506147c56000830184614331565b92915050565b6000610140820190506147e1600083018d614331565b6147ee602083018c614331565b6147fb604083018b613af7565b614808606083018a614331565b6148156080830189614331565b61482260a0830188613af7565b61482f60c0830187614331565b61483c60e0830186613af7565b61484a610100830185613b64565b614858610120830184614331565b9b9a5050505050505050505050565b6000604051905081810181811067ffffffffffffffff8211171561488e5761488d614cd6565b5b8060405250919050565b600067ffffffffffffffff8211156148b3576148b2614cd6565b5b602082029050602081019050919050565b600067ffffffffffffffff8211156148df576148de614cd6565b5b601f19601f8301169050602081019050919050565b6000819050602082019050919050565b600081519050919050565b600081519050919050565b600081519050919050565b6000602082019050919050565b600082825260208201905092915050565b600082825260208201905092915050565b600082825260208201905092915050565b600081905092915050565b600061497b82614afc565b915061498683614afc565b9250827fffffffffffffffffffffffffffffffffffffffffffffffffffffffffffffffff038211156149bb576149ba614c49565b5b828201905092915050565b60006149d182614afc565b91506149dc83614afc565b9250826149ec576149eb614c78565b5b828204905092915050565b6000614a0282614afc565b9150614a0d83614afc565b9250817fffffffffffffffffffffffffffffffffffffffffffffffffffffffffffffffff0483118215151615614a4657614a45614c49565b5b828202905092915050565b6000614a5c82614afc565b9150614a6783614afc565b925082821015614a7a57614a79614c49565b5b828203905092915050565b6000614a9082614adc565b9050919050565b60008115159050919050565b60007fffffffff0000000000000000000000000000000000000000000000000000000082169050919050565b600081600b0b9050919050565b600073ffffffffffffffffffffffffffffffffffffffff82169050919050565b6000819050919050565b600060ff82169050919050565b6000614b1e82614b25565b9050919050565b6000614b3082614adc565b9050919050565b6000614b4282614b49565b9050919050565b6000614b5482614adc565b9050919050565b82818337600083830152505050565b60005b83811015614b88578082015181840152602081019050614b6d565b83811115614b97576000848401525b50505050565b60006002820490506001821680614bb557607f821691505b60208210811415614bc957614bc8614ca7565b5b50919050565b6000614bda82614afc565b91507fffffffffffffffffffffffffffffffffffffffffffffffffffffffffffffffff821415614c0d57614c0c614c49565b5b600182019050919050565b6000614c2382614afc565b9150614c2e83614afc565b925082614c3e57614c3d614c78565b5b828206905092915050565b7f4e487b7100000000000000000000000000000000000000000000000000000000600052601160045260246000fd5b7f4e487b7100000000000000000000000000000000000000000000000000000000600052601260045260246000fd5b7f4e487b7100000000000000000000000000000000000000000000000000000000600052602260045260246000fd5b7f4e487b7100000000000000000000000000000000000000000000000000000000600052604160045260246000fd5b6000601f19601f8301169050919050565b614d1f81614a85565b8114614d2a57600080fd5b50565b614d3681614a97565b8114614d4157600080fd5b50565b614d4d81614aa3565b8114614d5857600080fd5b50565b614d6481614acf565b8114614d6f57600080fd5b50565b614d7b81614afc565b8114614d8657600080fd5b50565b614d9281614b06565b8114614d9d57600080fd5b5056fea26469706673582212207dfff7793facff444321bd4ef47fe490ce5c8dd6ae340a440cfbb4c7d4cad9a064736f6c63430008000033",
  "immutableReferences": {},
  "source": " //SPDX-License-Identifier: MIT\r\npragma solidity ^0.8.0;\r\n\r\n//import {RedirectAll, ISuperToken, IConstantFlowAgreementV1, ISuperfluid} from \"./RedirectAll.sol\";\r\nimport {ERC721} from \"@openzeppelin/contracts/token/ERC721/ERC721.sol\";\r\nimport {IConstantFlowAgreementV1} from \"@superfluid-finance/ethereum-contracts/contracts/interfaces/agreements/IConstantFlowAgreementV1.sol\";\r\nimport {IERC20} from \"@openzeppelin/contracts/interfaces/IERC20.sol\";\r\nimport {\r\n    ISuperfluid,\r\n    ISuperToken,\r\n    ISuperApp,\r\n    ISuperAgreement,\r\n    ContextDefinitions,\r\n    SuperAppDefinitions\r\n} from \"@superfluid-finance/ethereum-contracts/contracts/interfaces/superfluid/ISuperfluid.sol\";\r\n\r\n// Interface for ChainlinkKeepers\r\n//interface KeeperCompatibleInterface {\r\n//    function checkUpkeep(bytes calldata checkData) external returns (bool upkeepNeeded, bytes memory performData);\r\n//    function performUpkeep(bytes calldata performData) external;\r\n//}\r\n\r\n//contract MagePadNFT is ERC721, RedirectAll, KeeperCompatibleInterface {\r\ncontract CrowdfundingNFT is ERC721 {    \r\n    uint256 tokenId;\r\n    address operator;\r\n    \r\n    //For Kovantestnet\r\n    ISuperfluid host = ISuperfluid(0xF0d7d1D47109bA426B9D8A3Cde1941327af1eea3);\r\n    IConstantFlowAgreementV1 cfa = IConstantFlowAgreementV1(0xECa8056809e7e8db04A8fF6e4E82cD889a46FE2F);\r\n    \r\n    // Storing single NFT Data\r\n    struct nftData {\r\n        uint256 startingBlockTime;\r\n        uint256 endingBlockTime;\r\n        address streamReceiver;\r\n        uint256 streamAmount;\r\n        uint256 streamRate;\r\n        address streamToken;\r\n        uint256 securityAmount;\r\n        address minter;\r\n        bool isStopped;\r\n        uint256 originalStreamAmount;\r\n    }\r\n\r\n    // Storing all NFTs\r\n    mapping (uint256 => nftData) public allNFTs;\r\n\r\n    constructor (address _operator) ERC721 (\"CrowdfundingNFT\", \"CFNFT\") {\r\n        tokenId = 1;\r\n        operator = _operator;\r\n        \r\n        uint256 configWord =\r\n            SuperAppDefinitions.APP_LEVEL_FINAL |\r\n            SuperAppDefinitions.BEFORE_AGREEMENT_CREATED_NOOP |\r\n            SuperAppDefinitions.BEFORE_AGREEMENT_UPDATED_NOOP |\r\n            SuperAppDefinitions.BEFORE_AGREEMENT_TERMINATED_NOOP;\r\n\r\n        host.registerApp(configWord);\r\n    }\r\n\r\n    function checkForUpdate() public view returns(uint256[] memory) {\r\n        uint256[] memory flowsToStop = new uint256[](tokenId);\r\n        uint256 counter = 0;\r\n        for(uint256 i = 1; i < tokenId; i++) {\r\n            if(block.timestamp >= allNFTs[i].endingBlockTime && allNFTs[i].isStopped == false) {\r\n                flowsToStop[counter] = i;\r\n                counter = counter + 1;\r\n            }\r\n        }\r\n        return flowsToStop;        \r\n    }\r\n\r\n    function performUpdate(uint256[] memory _flowsToStop) public {\r\n        for(uint256 i = 0; i < _flowsToStop.length; i++) {\r\n            // Stop the Flow\r\n            stopFlow(_flowsToStop[i]);\r\n            //_stopStaking(_flowsToStop[i]);\r\n            // if the flow was a bit higher more than the stream amount because it was not correctly stopped than the resulting securityAmount is lower by that amount\r\n            // calculating the actual streamed amount\r\n            uint256 _toMuchStreamedAmount = (block.timestamp - allNFTs[_flowsToStop[i]].endingBlockTime) * allNFTs[_flowsToStop[i]].streamRate;\r\n            uint256 _resultingSecurityAmount = allNFTs[_flowsToStop[i]].securityAmount - _toMuchStreamedAmount;\r\n            ISuperToken(allNFTs[_flowsToStop[i]].streamToken).transfer(allNFTs[_flowsToStop[i]].minter, _resultingSecurityAmount);\r\n            // set NFT to zero\r\n            allNFTs[_flowsToStop[i]].streamRate = 0;\r\n            allNFTs[_flowsToStop[i]].securityAmount = 0;\r\n            //_burn(_flowsToStop[i]);\r\n        }\r\n    }\r\n\r\n    function mint(uint8 _isSupertoken, uint256 _streamAmount, uint256 _streamRate, address _streamToken, address _erc20TokenAddress, address _projectOwner) public returns(bool) {      \r\n        uint256 _startingBlockTime = block.timestamp;\r\n        uint256 _securityAmount = _streamRate * (60 * 60);\r\n\r\n        //decide if the token to be streamed is a supertoken or not\r\n        if(_isSupertoken == 1) {\r\n            //get the supertoken out of the senders pocket and store the balance in the mapping\r\n            require(ISuperToken(_streamToken).balanceOf(msg.sender) > (_streamAmount + _securityAmount), \"Not enough funds in your wallet to pay for stream and security\");\r\n            ISuperToken(_streamToken).transferFrom(msg.sender, address(this), (_streamAmount + _securityAmount));\r\n        } \r\n        if(_isSupertoken == 2) {\r\n            //get the erc20 token out of the senders pocket, store and start upgrading\r\n            require(IERC20(_streamToken).balanceOf(msg.sender) > (_streamAmount + _securityAmount), \"Not enough funds in your wallet to pay for stream and security\");\r\n            IERC20(_erc20TokenAddress).transferFrom(msg.sender, address(this), (_streamAmount + _securityAmount));\r\n            //approve wrapper to spend ERC20_token\r\n            IERC20(_erc20TokenAddress).approve(_streamToken, (_streamAmount + _securityAmount));\r\n            //upgrading the ERC20_token \r\n            ISuperToken(_streamToken).upgrade((_streamAmount + _securityAmount));        \r\n        }\r\n\r\n        //storing nft data on chain\r\n        allNFTs[tokenId] = nftData(_startingBlockTime, 0, _projectOwner, _streamAmount, _streamRate, _streamToken, _securityAmount, msg.sender, false, _streamAmount);\r\n        //actual minting of the nft directly in the wallet of the project\r\n        _mint(_projectOwner, tokenId);\r\n        //start the flow\r\n        _startFlow(tokenId);\r\n        tokenId = tokenId + 1;\r\n        return true;\r\n    }\r\n\r\n    function _startFlow(uint256 _tokenId) private returns(bool) {\r\n        // calculating the endingBlock\r\n        uint256 _duration = allNFTs[_tokenId].streamAmount / allNFTs[_tokenId].streamRate;\r\n        uint256 _endingBlock = allNFTs[_tokenId].startingBlockTime + _duration;\r\n        allNFTs[_tokenId].endingBlockTime = _endingBlock;\r\n        allNFTs[_tokenId].isStopped = false;\r\n        host.callAgreement(cfa, abi.encodeWithSelector(cfa.createFlow.selector, allNFTs[_tokenId].streamToken, allNFTs[_tokenId].streamReceiver, allNFTs[_tokenId].streamRate, new bytes(0)), \"0x\");\r\n        return true;\r\n    }\r\n\r\n    function stopFlow(uint256 _tokenId) public returns(bool) {\r\n        require(allNFTs[_tokenId].isStopped == false, \"Stream is already stopped\");\r\n        require(allNFTs[_tokenId].minter == msg.sender || allNFTs[_tokenId].minter == operator, \"You are not allowed to stop the stream\");\r\n        allNFTs[_tokenId].isStopped = true;\r\n        // calculating the already streamed amount and set the rest of initial streaming amount to the new streamAmount for this nft\r\n        uint256 _actualTime = block.timestamp;\r\n        uint256 _alreadyStreamedAmount = (_actualTime - allNFTs[_tokenId].startingBlockTime) * allNFTs[_tokenId].streamRate;\r\n        // _newStreamAmount as an uint256 value can never be negative\r\n        uint256 _newStreamAmount = 0;\r\n        if(_alreadyStreamedAmount <= allNFTs[_tokenId].streamAmount) {\r\n            _newStreamAmount = allNFTs[_tokenId].streamAmount - _alreadyStreamedAmount;\r\n        }\r\n        allNFTs[_tokenId].streamAmount = _newStreamAmount;\r\n        host.callAgreement(cfa, abi.encodeWithSelector(cfa.deleteFlow.selector, allNFTs[_tokenId].streamToken, address(this), allNFTs[_tokenId].streamReceiver, new bytes(0)), \"0x\");\r\n        return true;\r\n    }\r\n\r\n    function withdraw(uint256 _tokenId) public returns(bool) {\r\n        require(allNFTs[_tokenId].isStopped == true, \"Stream is not stopped yet\");\r\n        require(allNFTs[_tokenId].minter == msg.sender || allNFTs[_tokenId].minter == operator, \"You are not allowed to withdraw\");\r\n        uint256 balance = allNFTs[_tokenId].streamAmount + allNFTs[_tokenId].securityAmount;\r\n        allNFTs[_tokenId].streamAmount = 0;\r\n        allNFTs[_tokenId].securityAmount = 0;\r\n        ISuperToken(allNFTs[_tokenId].streamToken).transfer(msg.sender, balance);\r\n        return true;\r\n    }\r\n\r\n\r\n    //now I will insert a nice little hook in the _transfer, including the RedirectAll function I need\r\n    function _beforeTokenTransfer(address from, address to, uint256 _tokenId) internal override {\r\n        // should not be called if the nft is minted\r\n        if(from != address(0)) {\r\n            (,int96 outFlowRate,,) = cfa.getFlow(ISuperToken(allNFTs[_tokenId].streamToken), address(this), allNFTs[_tokenId].streamReceiver);\r\n            if(outFlowRate > 0) {\r\n                stopFlow(_tokenId);\r\n                allNFTs[_tokenId].streamReceiver = to;\r\n                allNFTs[_tokenId].isStopped = false;\r\n                host.callAgreement(cfa, abi.encodeWithSelector(cfa.createFlow.selector, allNFTs[_tokenId].streamToken, allNFTs[_tokenId].streamReceiver, allNFTs[_tokenId].streamRate, new bytes(0)), \"0x\");\r\n            }\r\n            else {\r\n              allNFTs[_tokenId].streamReceiver = to;\r\n              allNFTs[_tokenId].isStopped = false;\r\n              host.callAgreement(cfa, abi.encodeWithSelector(cfa.createFlow.selector, allNFTs[_tokenId].streamToken, allNFTs[_tokenId].streamReceiver, allNFTs[_tokenId].streamRate, new bytes(0)), \"0x\");\r\n            }\r\n        }\r\n    }\r\n}",
  "sourcePath": "D:\\Programming\\NFT-Hack\\contracts\\CrowdfundingNFT.sol",
  "compiler": {
    "name": "solc",
    "version": "0.8.0+commit.c7dfd78e.Emscripten.clang"
  },
  "schemaVersion": "3.4.3",
  "updatedAt": "2022-01-14T16:50:21.326Z",
  "networkType": "ethereum",
  "devdoc": {
    "kind": "dev",
    "methods": {
      "approve(address,uint256)": {
        "details": "See {IERC721-approve}."
      },
      "balanceOf(address)": {
        "details": "See {IERC721-balanceOf}."
      },
      "getApproved(uint256)": {
        "details": "See {IERC721-getApproved}."
      },
      "isApprovedForAll(address,address)": {
        "details": "See {IERC721-isApprovedForAll}."
      },
      "name()": {
        "details": "See {IERC721Metadata-name}."
      },
      "ownerOf(uint256)": {
        "details": "See {IERC721-ownerOf}."
      },
      "safeTransferFrom(address,address,uint256)": {
        "details": "See {IERC721-safeTransferFrom}."
      },
      "safeTransferFrom(address,address,uint256,bytes)": {
        "details": "See {IERC721-safeTransferFrom}."
      },
      "setApprovalForAll(address,bool)": {
        "details": "See {IERC721-setApprovalForAll}."
      },
      "supportsInterface(bytes4)": {
        "details": "See {IERC165-supportsInterface}."
      },
      "symbol()": {
        "details": "See {IERC721Metadata-symbol}."
      },
      "tokenURI(uint256)": {
        "details": "See {IERC721Metadata-tokenURI}."
      },
      "transferFrom(address,address,uint256)": {
        "details": "See {IERC721-transferFrom}."
      }
    },
    "version": 1
  },
  "userdoc": {
    "kind": "user",
    "methods": {},
    "version": 1
  }
}